:0300000002012CCE
:0C012C00787FE4F6D8FD758114020173A1
:0B03F000C0F9A4B0999282F88090FF41
:10039700080B0A0A0A0A0A0A0A0A010800010A00DF
:1001B8001203A81203B7438E805389F0758ACD7550
:1001C8008CD4C28DD28CD2A9E4FF1202F18F130510
:1001D800131203FBAD13E4FF1203331203FBD2AF78
:1001E800E51375F06484F510E51375F06484AFF0D9
:1001F800EF75F00A84F511EF75F00A8485F0128026
:01020800DF16
:03000B000202539B
:10025300C0E0C0F0C083C082C0D075D000C000C071
:1002630001C002C003C004C005C006C007120209D2
:10027300D007D006D005D004D003D002D001D000DF
:0B028300D0D0D082D083D0F0D0E03289
:0F03A800E5A0541F44A0F5A0E4F58053A01F2248
:0F03B700E5A0541F4480F5A07580FF53A01F22BE
:0803FB007F6C7E91DEFEDFFC49
:0104030022D6
:10020900E5A0541F44E0F5A07580FF53A01FAF0877
:10021900A8077401088002C333D8FCF580E5A0540F
:100229001F44C0F5A053A01F740B2508F8E69003DE
:10023900F093F580E5A0541F44E0F5A053A01F05F5
:0902490008E50864087002F508DC
:010252002289
:10000E00E50A14602214700302011B24026003022D
:10001E00012B75B00FC2C2C2C4AFB0EF640F700334
:10002E0002012B750A012275B00FC2C2C2C4AFB055
:10003E00EF640F700302011720B00375090120B1A0
:10004E000375090220B20375090320B30375090471
:10005E00E50924FE603C1460601470030200EE2477
:10006E0003600302012B75B0F0D2C2D2C420C406C5
:10007E00E4F51402011320C20675140102011320C7
:10008E00B505751402807E30B40302012B7514037E
:10009E00807375B0F0D2C2D2C420C405751404802A
:1000AE006420C205751405805C20B50575140680A4
:1000BE005420B469751407804C75B0F0D2C2D2C406
:1000CE0020C405751408803D20C2057514098035BD
:1000DE0020B50575140A802D20B44275140B8025A9
:1000EE0075B0F0D2C2D2C420C40575140C8016208F
:1000FE00C20575140D800E20B50575140E800620F0
:10010E00B41B75140F750A0222E4F50A2275B00F9E
:0D011E00C2C2C2C4AFB0EF640F7002F50A98
:01012B0022B1
:08000300E51470037514FF22DF
:0E03C60000007F097E687D8BDDFEDEFCDFFA25
:0103D4002206
:04034F00D2A07F05B4
:10035300000000000000000000000000000000AEEC
:06036300071FEE70EB2203
:0F03D500D2A112034FC2A17F05120353C2A0226F
:0C03E400C2A112034FD2A17F05020353F7
:02028E00AD07BA
:10029000C2AFE4FCECC39408748094805024C2A0E4
:1002A0007F05120353ED30E704D2A18002C2A17F83
:1002B00005120353D2A0ED25E0FD7F051203530C78
:0602C00080D2D2AFC2A003
:0102C6002215
:0B03160012028E120321AF0312028EB0
:1003210012034FA2A1E433FDC2A07F05120353AF14
:0103310005C6
:0103320022A8
:1002C700C2AFE4FCECC39408748094805017120307
:1002D7004FED25E0FD30A103430501C2A07F0512C4
:0902E70003530C80DFD2AFAF0518
:0102F00022EB
:10036900C2A0EF24FF92A17F0512035312034FC2CB
:08037900A0D2A17F050203538D
:10038100AD071FED600FE4FEEEC39470748094809E
:0503910050EE0E80F3A8
:010396002244
:10033300AB05AA071203D57FA012028E120321AFC9
:0C034300021203161203E47F0A02038179
:0202F100AB0759
:1002F3001203D57FA01203161203D57FA112028E1B
:100303001203211202C7AD077F011203691203E42E
:02031300AF0534
:0103150022C5
:100138000201B8E493A3F8E493A34003F68001F224
:1001480008DFF48029E493A3F85407240CC8C333C8
:10015800C4540F4420C8834004F456800146F6DF97
:10016800E4800B0102040810204080900397E47E8D
:10017800019360BCA3FF543F30E509541FFEE4938C
:10018800A360010ECF54C025E060A840B8E493A353
:10019800FAE493A3F8E493A3C8C582C8CAC583CA7E
:1001A800F0A3C8C582C8CAC583CADFE9DEE780BE36
:0103A7000055
:00000001FF
