:0300000002051ADC
:0C051A00787FE4F6D8FD7581470205618A
:1009E800C0F9A4B0999282F88090FF407924301918
:0809F8001202780010FFC1BFDC
:10080A0008400A0A0A0A0A0A0A0A012C00013600E2
:10081A00013B00013101012D01013D0101370101B7
:10082A003C19013F00012E00013800013900013A4C
:07083A0000012F0001300056
:0F0A4D007580FFE5A0541F4480F5A053A01F2221
:0F0A5C00E4F580E5A0541F44A0F5A053A01F228D
:100A2A00438E805389F0758A20758CD1C28DD28C01
:030A3A00D2A9221C
:100A00007B287D3B7F17120613120A4D120A5C12D7
:060A10000A2AD2AF80FEAD
:03000B00020432BA
:10043200C0E0C0F0C083C082C0D075D000C000C090
:0D04420001C002C003C004C005C006C00711
:10044F001206B60521E521640A702DF52112066703
:10045F0085363B1203128F36E53BC3953650031298
:10046F000749E53BD395364003753E00120700124E
:10047F000990120A6B120A3D0523E523700205222B
:10048F00FFAE22BE0114BF2C11752200752300127E
:10049F00078D8F358E348D338C32E53F64017019A3
:1004AF000525E52570020524B4880EE524B413094B
:1004BF00752400752500753F00E538640170190536
:1004CF0027E52770020526B4880EE526B4130975B3
:1004DF002600752700753800E5306401700F052878
:1004EF00E5286464700AF528633AFF8003752800D5
:1004FF00D007D006D005D004D003D002D001D00051
:0B050F00D0D0D082D083D0F0D0E032FA
:1003120043B00FC2C4D2C2D2B5D2B4E5B0540F7545
:100322002A00F52BD2C4C2C2D2B5D2B4C4F8540F3B
:10033200C868FFE52AC454F048FEE5B0540FFDEE4C
:10034200F52AEF4DF52BD2C4D2C2C2B5D2B4C4F84D
:10035200540FC868FFE52AC454F048FEE5B0540FB4
:10036200FDEEF52AEF4DF52BD2C4D2C2D2B5C2B4FE
:10037200C4F8540FC868FFE52AC454F048FEE5B03B
:10038200540FFDEEF52AEF4DF52BF4FFE52AF4FEAE
:10039200EF8EF012029003EB000103FF0002041340
:1003A20000040427000803E6001003FA0020040EEC
:1003B20000400422008003E1010003F50200040969
:1003C2000400041D080003DC100003F020000404F4
:1003D2004000041880000000042C752901804E752D
:1003E200290280497529038044752904803F7529B3
:1003F20005803A75290680357529078030752908E8
:10040200802B752909802675290A802175290B8080
:100412001C75290C801775290D801275290E800D07
:0F04220075290F80087529108003E4F529AF298B
:0104310022A8
:1006B6007580FFE5A0541F44E0F5A053A01FAF2CA2
:1006C600A8077401088002C333D8FCF580E5A0545E
:1006D6001F44C0F5A053A01F7440252CF8E69009CE
:1006E600E893F580E5A0541F44E0F5A053A01F054C
:0A06F6002CE52C64087002F52C229C
:10074900E53624F5601614602924FC60130470331F
:100759000537E5376404702B75370122632EFF22B4
:10076900E5376403701D053CE53C64647015753C10
:100779000A22E5376403700B153CE53C64097003F4
:04078900753C632236
:100A3D00E53624F47009E53764027003753E012232
:100700007F811207CD8F3D7F831207CD8F2D7F858F
:100710001207CD8F31E531C4540F75F00AA4FFE5FF
:1007200031540F2FF531E52DC4540F75F00AA4FF95
:10073000E52D540F2FF52DE53DC4540F75F00AA497
:09074000FFE53D540F2FF53D22A9
:10099000E53724FE600A146011240270100205A6D7
:0E09A000E53E70030208730208A21209492204
:1005A60075401675410175420A75430A75440AE499
:1005B600FFFE7D207C41AB35AA34A933A832120058
:1005C6000E1201CBAB07AA067C007D6412024C8F8B
:1005D600457C007D64AF03AE0212024C7E007F0AAA
:1005E600CFCDCFCECCCE12024CEF240BF546E4FF96
:1005F600FE7D207C41AB35AA34A933A83212000E09
:0D0606001201CB7C007D0A12024C8D4722B0
:1008730075401675410275420AE53175F00A84F533
:1008830043E53175F00A8485F044754517E52D7508
:0F089300F00A84F546E52D75F00A8485F04722BA
:1008A20075401675410275420AE52D75F00A84F508
:1008B20043E52D75F00A8485F044754517E53D75CD
:0F08C200F00A84F546E53D75F00A8485F047227B
:1009490075401675410375420A75430A75440A755F
:10095900450AE53C75F00A84F546E53C75F00A84DC
:0409690085F04722AC
:10084200AC3CE4120197AB35AA34A933A8321201A9
:1008520014600A40087508107530018005E4F50837
:10086200F530850880E5A0541F44A0F5A053A01FD1
:010872002263
:1008D100E52D7007E53D7003753F01E53F6401704B
:1008E100077F107530018004E4FFF5308F80E5A0AB
:0908F100541F44A0F5A053A01F00
:0108FA0022DB
:0B0A6B00E52E70030208421208D122A1
:10066700E52D7007E53D7003753801E52E700575BA
:1006770039018003E4F539E5386401700543070162
:1006870080035307FEE539640170054307028003C1
:100697005307FDE53A600543070480035307FBEF63
:0E06A700F4F580E5A0541F4480F5A053A01F79
:0106B5002222
:1009CC00E4FEEEC3940874809480500FC297EF132A
:0B09DC0092A3EFC313FFD2970E80E739
:0109E70022ED
:100A1600C29300C29700D293001209CCAF05120907
:040A2600CCC2932289
:1007CD00E4FDC29300C29700D293001209CCE4FF5E
:1007DD00EFC39408748094805011C297EDC313FD3C
:1007ED0030A303430580D2970F80E5C29300C297D3
:0C07FD0000D29700C2A300D2A300AF05F9
:0108090022CC
:02061300AE0532
:10061500EF75F00A84C454F0FDEF75F00A84ED25FA
:10062500F0FCEE75F00A84C454F0FFEE75F00A8410
:10063500AAF0EF2AF9EB75F00A84C454F02AFBE41A
:10064500FD7F8E120A16AD037F80120A16AD017F5B
:1006550082120A16AD047F84120A167D807F8E02EF
:020665000A1673
:0409AE007F057E0043
:1009B200EF1FAA0670011E4A600FE4FDEDC3940CFE
:0909C2007480948050EA0D80F36A
:0109CB002209
:0208FB00A9074B
:1008FD00E4FBEBC39408748094805012C294E91306
:10090D0092941209AED294E9C313F90B80E47F05DA
:05091D007E000209B29A
:10096D00E4FBEBC39408748094805014C294ECC3E0
:10097D0013FCD2943094034304801209AE0B80E231
:02098D00AF04B5
:01098F002245
:10092200C200D2947F0C7E001209B2C2947F507E24
:10093200001209B2D2947F0A7E001209B2A29492E6
:06094200001209AEA20044
:01094800228C
:10078D001209227FCC1208FB7F441208FB7FC87E22
:10079D00001209B21209227FCC1208FB7FBE12088B
:1007AD00FB12096DA90712096DEF540FFEE9FFFD4C
:1007BD00AC06E4120192E4FBFA7980783D02000E5A
:10000E00EC4D6011E8497017ED33EC3304600DE4EC
:10001E00FCFFFEFD22E933E8330470F802023712CA
:10002E00020258046009E4CC2481500628500902CB
:10003E00024128400302023EC0E0EB4A7044B98000
:10004E0006D0E0FB02022DEF4E701CBD8008EBFFC8
:10005E00EAFEE9FD80EBE98DF0A4FEE5F00200F783
:10006E00E9CDF9EAFEEBFFEF89F0A4FCE5F0CE89CD
:10007E00F0A42EFFE435F0CD89F0A42DFEE435F08A
:10008E008067EF4E7005BD80D780C3EF8BF0A4ACB8
:10009E00F0EE8BF0A42CFCE435F0F8EF8AF0A42CF3
:1000AE00E5F038FCE433CB8DF0A42CFCE5F03BF806
:1000BE00EE8AF0A42CFCE5F038F8E433CF89F0A4F6
:1000CE002CFCE5F038CF3400CE89F0A42FFFE5F0FC
:1000DE003EFEE433C98DF0A42EFEE5F039CD8AF054
:1000EE00A42FFFE5F03EFEE43DFD33D0E0FB5007CC
:1000FE000BBB000F020241EC2CFCEF33FFEE33FE84
:06010E00ED33FD020219B1
:1001140074F8CC6480CCC86480C8F58204604FC392
:10012400EB9FF5F0EA9E42F0E99D42F0E89C45F031
:10013400603C501DE5825FFFE582D313CB5BCBF4BB
:100144002B5582FB50280ABA002409B900200880E4
:100154001DE5825BFBE582D313CF5FCFF4C3132F7E
:100164005582FF50090EBE00050DBD00010CC3EB06
:100174009FF5F0EA9E42F0E99D42F0E89C45F0606C
:0901840007CC4820E701B3EC228E
:10018D0075F020800E75F010800575F0087D007EED
:10019D00007F003392D530D503120282EC3340102C
:1001AD00EF33FFEE33FEED33FDEC33FCD5F0ED22F6
:0E01BD00E5F0247EA2D513CC92E7CDCEFF2232
:1001CB00EDD2E7CD33EC3392D524814006E4FFFE2C
:1001DB00FDFC22FCE4CFCECDCC24E0501174FF808B
:1001EB00EDC3CC13CCCD13CDCE13CECF13CF047028
:0701FB00F030D5DE020282A4
:10020200E9D2E7C933E833F892D5EDD2E7CD33EC42
:0702120033FC5002B2D522BB
:10021900EC30E7100FBF000C0EBE00080DBD000446
:100229000BEB6014A2D5EB13FCED92E7FD2274FFF2
:10023900FCFDFEFF22E480F8A2D574FF13FC7D804B
:03024900E480EF5F
:10052600020A00E493A3F8E493A34003F68001F2E1
:1005360008DFF48029E493A3F85407240CC8C333D6
:10054600C4540F4420C8834004F456800146F6DFA5
:10055600E4800B010204081020408090080AE47E23
:10056600019360BCA3FF543F30E509541FFEE4939A
:10057600A360010ECF54C025E060A840B8E493A361
:10058600FAE493A3F8E493A3C8C582C8CAC583CA8C
:10059600F0A3C8C582C8CAC583CADFE9DEE780BE44
:0108410000B6
:10024C00C2D5EC30E709B2D5E4C39DFDE49CFCEECD
:10025C0030E715B2D5E4C39FFFE49EFE1202BDC386
:10026C00E49DFDE49CFC80031202BD30D507C3E481
:06027C009FFFE49EFE223C
:0E028200C3E49FFFE49EFEE49DFDE49CFC228D
:10029000D083D082F8E4937012740193700DA3A3FD
:1002A00093F8740193F5828883E473740293B5F034
:0D02B000067403936860E9A3A3A3A380D89C
:1002BD00BC000BBE0029EF8DF084FFADF022E4CC25
:1002CD00F875F008EF2FFFEE33FEEC33FCEE9DECEE
:1002DD00984005FCEE9DFE0FD5F0E9E4CEFD22ED34
:1002ED00F8F5F0EE8420D21CFEADF075F008EF2F7E
:1002FD00FFED33FD4007985006D5F0F222C398FD6F
:05030D000FD5F0EA220B
:00000001FF
