:0300000002041CDB
:0C041C00787FE4F6D8FD75813A02046395
:10090200C0F9A4B0999282F88090FF4079243019FE
:090912001202780010FFC68C8867
:1009A60008330A0A0A0A0A0A0A0A0131010124144A
:0309B6000130000D
:0F09E000E4F580E5A0541F44A0F5A053A01F220A
:0F09EF007580FFE5A0541F4480F5A053A01F2280
:1009BA00538E7F5389F0758A18758CFCC28DD28C40
:0309CA00D2A9228D
:10097A001209E01209EF1209CD1209BAD2AF12090F
:06098A004C120A2580F862
:03000B00020633B7
:10063300C0E0C0F0C083C082C0D075D000C000C08D
:0D06430001C002C003C004C005C006C0070E
:100650001206AF0521E521640A7017F5211206F98B
:10066000852B321203128F2BE532C3952B500312C8
:1006700007420523E52370020522FFAE22BE0114C6
:10068000BF2C117522007523001207868F2A8E2930
:040690008D288C27FE
:10069400D007D006D005D004D003D002D001D000BA
:0B06A400D0D0D082D083D0F0D0E03264
:1003120043B00FC2C4D2C2D2B5D2B4E5B0540F7E3C
:1003220000D2C4C2C2D2B5D2B4C4F8540FC868FF56
:10033200EEC454F048FEE5B0540FFDEF4DD2C4D2E6
:10034200C2C2B5D2B4C4F8540FC868FFEEC454F0A8
:1003520048FEE5B0540FFDEF4DD2C4D2C2D2B5C2B1
:10036200B4C4F8540FC868FFEEC454F048FEE5B0B8
:10037200540FFDEF4DF4FFEEF4FEEF8EF0120290FB
:1003820003D5000103E9000203FD00040411000883
:1003920003D0001003E4002003F80040040C0080A6
:1003A20003CB010003DF020003F30400040708008B
:1003B20003C6100003DA200003EE400004028000AE
:1003C20000000416750801804E7508028049750800
:1003D200038044750804803F750805803A75080655
:1003E20080357508078030750808802B75080980EC
:1003F2002675080A802175080B801C75080C801769
:1004020075080D801275080E800D75080F8008752D
:0904120008108003E4F508AF08AE
:01041B0022BE
:10074200E52B24F7601614601724FC60250470332F
:100752000531E5316404702B753101226330FF22CB
:10076200E5316402701D0524E52464647015752466
:100772000A22E5316402700B1524E5246409700332
:040782007524632255
:1006AF007580FFE5A0541F44E0F5A053A01FAF25B0
:1006BF00A8077401088002C333D8FCF580E5A05465
:1006CF001F44C0F5A053A01F74332525F8E69009E9
:1006DF000293F580E5A0541F44E0F5A053A01F0539
:0A06EF0025E52564087002F52522B8
:10094C00E53124FE600A14600A240270090204A82E
:07095C000208981205302289
:1004A80075331675340A75350A75360AE4FFFE7D0C
:1004B800C87C42AB2AAA29A928A82712000E120133
:1004C800CBAB07AA067C037DE812024C8F377C036E
:1004D8007DE8AF03AE0212024C7E007F64CFCDCF21
:1004E800CECCCE12024CEF240BF538E4FFFE7DC8CB
:1004F8007C42AB2AAA29A928A82712000E1201CBF0
:10050800AB07AA067C007D6412024C7E007F0ACFEE
:10051800CDCFCECCCE12024C8F397C007D0AAF03F2
:08052800AE0212024C8D3A22D2
:1008980075331775340A75350A75360A75370A754A
:1008A800380AE52475F00A84F539E52475F00A84D8
:0408B80085F03A226B
:10053000AC26E41201977B2E7A9079A0783C1200C9
:100540000E8F2F8E2E8D2D8C2C75331875340A75C9
:10055000350A75360A75370AE4FFFE7DC87C42AB62
:100560002FAA2EA92DA82C12000E1201CBAB07AA80
:10057000067C007D6412024CEF240BF5387C007D74
:1005800064AF03AE0212024C7E007F0ACFCDCFCE05
:10059000CCCE12024C8F39E4FFFE7DC87C42AB2FDB
:1005A000AA2EA92DA82C12000E1201CB7C007D0AC8
:0605B00012024C8D3A22FC
:0B0A2500E53070030208BC1205B62289
:1008BC00AC24E4120197AB2AAA29A928A827120173
:1008CC0014600740057526FF8003E4F526AF261259
:0308DC00093422BA
:1005B600E4FFFE7DA07C41AB2AAA29A928A8271220
:1005C60001145008752633AF26120934E4FFFE7D68
:1005D600A07C41AB2AAA29A928A827120114602EBB
:1005E600402CE4FFFE7D207C42AB2AAA29A928A83C
:1005F600271201145018AF2AAE29AD28AC271201D4
:10060600CBEF75F008A42493F526FF120934E4FF16
:10061600FE7D207C42AB2AAA29A928A8271201140C
:0D062600600A40087526CCAF261209342268
:1006F900E530700543070180035307FEE531FD7CB2
:10070900006401700543070280035307FDED64028D
:100719004C700543070480035307FBED64034C70D9
:100729000543070880035307F7EFF4F580E5A05464
:080739001F4480F5A053A01F2E
:010741002295
:040A0D00D2A07F05EF
:080A110000AE071FEE70F92290
:0F09FE00D2A1120A0DC2A17F05120A11C2A022B6
:0C0A1900C2A1120A0DD2A17F05020A1131
:10096300C2A0A20292A17F05120A11120A0DC2A00F
:07097300D2A17F05020A1169
:08091B001209FE7F901207C7CC
:10092300120A0DA2A19200C2A07F05120A11A20011
:0109330022A1
:0207C700AD077C
:1007C900E4FCECC39408748094805024C2A07F0593
:1007D900120A11ED30E704D2A18002C2A17F0512ED
:1007E9000A11D2A0ED25E0FD7F05120A110C80D275
:0207F900C2A09C
:0107FB0022DB
:10084D00E4FCECC39408748094805017120A0DEDEB
:10085D0025E0FD30A103430501C2A07F05120A1159
:05086D000C80DFAF0567
:010872002263
:10099000AD071FED600FE4FEEEC394707480948089
:0509A00050EE0E80F393
:0109A500222F
:1009CD0012091B7F031207C7120923120A197F0A86
:0309DD000209907C
:10093400AB0712091B7F431207C7120923AF031227
:0809440007C7120923020A197A
:040873007F057E007F
:10087700EF1FAA0670011E4A6016E4FDEDFB3395D3
:10088700E0FAC3EB940CEA6480948050E30D80ECAB
:01089700223E
:0207FC008F0963
:1007FE00E4F9E9C39408748094805015C294E50915
:10080E00139294120873D294E509C313F509098063
:08081E00E17F057E000208776E
:1008DF00E4FCECC39408748094805014C294E9C370
:1008EF0013F9D2943094034301801208730C80E201
:0208FF00AF0147
:0109010022D3
:10082600C201D2947F0C7E00120877C2947F507E5C
:1008360000120877D2947F0A7E00120877A294925B
:0608460001120873A2017B
:01084C002289
:100786001208267FCC1207FC7F441207FC7FC87E26
:10079600001208771208267FCC1207FC7FBE1207CC
:1007A600FC1208DF8F081208DFEF540FFEE508FF82
:1007B600FDAC06E4120192E4FBFA7980783D020072
:0107C6000E24
:10000E00EC4D6011E8497017ED33EC3304600DE4EC
:10001E00FCFFFEFD22E933E8330470F802023712CA
:10002E00020258046009E4CC2481500628500902CB
:10003E00024128400302023EC0E0EB4A7044B98000
:10004E0006D0E0FB02022DEF4E701CBD8008EBFFC8
:10005E00EAFEE9FD80EBE98DF0A4FEE5F00200F783
:10006E00E9CDF9EAFEEBFFEF89F0A4FCE5F0CE89CD
:10007E00F0A42EFFE435F0CD89F0A42DFEE435F08A
:10008E008067EF4E7005BD80D780C3EF8BF0A4ACB8
:10009E00F0EE8BF0A42CFCE435F0F8EF8AF0A42CF3
:1000AE00E5F038FCE433CB8DF0A42CFCE5F03BF806
:1000BE00EE8AF0A42CFCE5F038F8E433CF89F0A4F6
:1000CE002CFCE5F038CF3400CE89F0A42FFFE5F0FC
:1000DE003EFEE433C98DF0A42EFEE5F039CD8AF054
:1000EE00A42FFFE5F03EFEE43DFD33D0E0FB5007CC
:1000FE000BBB000F020241EC2CFCEF33FFEE33FE84
:06010E00ED33FD020219B1
:1001140074F8CC6480CCC86480C8F58204604FC392
:10012400EB9FF5F0EA9E42F0E99D42F0E89C45F031
:10013400603C501DE5825FFFE582D313CB5BCBF4BB
:100144002B5582FB50280ABA002409B900200880E4
:100154001DE5825BFBE582D313CF5FCFF4C3132F7E
:100164005582FF50090EBE00050DBD00010CC3EB06
:100174009FF5F0EA9E42F0E99D42F0E89C45F0606C
:0901840007CC4820E701B3EC228E
:10018D0075F020800E75F010800575F0087D007EED
:10019D00007F003392D530D503120282EC3340102C
:1001AD00EF33FFEE33FEED33FDEC33FCD5F0ED22F6
:0E01BD00E5F0247EA2D513CC92E7CDCEFF2232
:1001CB00EDD2E7CD33EC3392D524814006E4FFFE2C
:1001DB00FDFC22FCE4CFCECDCC24E0501174FF808B
:1001EB00EDC3CC13CCCD13CDCE13CECF13CF047028
:0701FB00F030D5DE020282A4
:10020200E9D2E7C933E833F892D5EDD2E7CD33EC42
:0702120033FC5002B2D522BB
:10021900EC30E7100FBF000C0EBE00080DBD000446
:100229000BEB6014A2D5EB13FCED92E7FD2274FFF2
:10023900FCFDFEFF22E480F8A2D574FF13FC7D804B
:03024900E480EF5F
:1004280002097AE493A3F8E493A34003F68001F267
:1004380008DFF48029E493A3F85407240CC8C333D5
:10044800C4540F4420C8834004F456800146F6DFA4
:10045800E4800B01020408102040809009A6E47E85
:10046800019360BCA3FF543F30E509541FFEE49399
:10047800A360010ECF54C025E060A840B8E493A360
:10048800FAE493A3F8E493A3C8C582C8CAC583CA8B
:10049800F0A3C8C582C8CAC583CADFE9DEE780BE43
:0109B900003D
:10024C00C2D5EC30E709B2D5E4C39DFDE49CFCEECD
:10025C0030E715B2D5E4C39FFFE49EFE1202BDC386
:10026C00E49DFDE49CFC80031202BD30D507C3E481
:06027C009FFFE49EFE223C
:0E028200C3E49FFFE49EFEE49DFDE49CFC228D
:10029000D083D082F8E4937012740193700DA3A3FD
:1002A00093F8740193F5828883E473740293B5F034
:0D02B000067403936860E9A3A3A3A380D89C
:1002BD00BC000BBE0029EF8DF084FFADF022E4CC25
:1002CD00F875F008EF2FFFEE33FEEC33FCEE9DECEE
:1002DD00984005FCEE9DFE0FD5F0E9E4CEFD22ED34
:1002ED00F8F5F0EE8420D21CFEADF075F008EF2F7E
:1002FD00FFED33FD4007985006D5F0F222C398FD6F
:05030D000FD5F0EA220B
:00000001FF
