:0300000002006695
:0C006600787FE4F6D8FD7581100200AD33
:10012D0012014C12015B12004DD2AF750B01750C13
:0F013D0001750D04750E05750F0175100480EC2A
:030063000200F2A6
:1000F200C0E0C0F0C083C082C0D075D000C000C0D4
:1001020001C002C003C004C005C006C0071200033C
:10011200D007D006D005D004D003D002D001D00041
:0B012200D0D0D082D083D0F0D0E032EB
:0B017500C0F9A4B0999282F88090FFBE
:0A016A0008090A0A0A0A0A0A0A0A2A
:100003007580FFE5A0541F44E0F5A053A01FAF087F
:10001300A8077401088002C333D8FCF580E5A05417
:100023001F44C0F5A053A01F74092508F8E69001EA
:100033007593F580E5A0541F44E0F5A053A01F0578
:0A00430008E50864087002F50822C1
:0F014C00E4F580E5A0541F44A0F5A053A01F22A6
:0F015B007580FFE5A0541F4480F5A053A01F221C
:10004D00538EFB75D71875D6FC438E1043AF042223
:1000720002012DE493A3F8E493A34003F68001F276
:1000820008DFF48029E493A3F85407240CC8C3338F
:10009200C4540F4420C8834004F456800146F6DF5E
:1000A200E4800B010204081020408090016AE47E83
:1000B200019360BCA3FF543F30E509541FFEE49353
:1000C200A360010ECF54C025E060A840B8E493A31A
:1000D200FAE493A3F8E493A3C8C582C8CAC583CA45
:1000E200F0A3C8C582C8CAC583CADFE9DEE780BEFD
:01017400008A
:00000001FF
