:03000000020E42AB
:0C0E4200787FE4F6D8FD758179020E89F6
:101016006675636B796F750D004E6F697365733A0C
:1010260025332E316664620D0A00C0F9A4B0999288
:1010360082F88090FF40792430191202780010FF60
:0D11820008550A0A0A0A0A0A0A0A01500062
:0F115500E4F580E5A0541F44A0F5A053A01F228D
:0F1164007580FFE5A0541F4480F5A053A01F2203
:10113000538E7F5389F0758A18758CFCC28DD28CC2
:03114000D2A9220F
:10114300759850538EFB75D7E675D6FF438E10D234
:02115300AC22CC
:100D8D0012115512116412113012111B121143D28E
:100D9D00AFE4FFFE7D207C41AB4EAA4DA94CA84B84
:100DAD0012002612016AAB07AA067C007D641205AB
:100DBD007D8F5A7C007D64AF03AE0212057D7E00EF
:100DCD007F0ACFCDCFCECCCE12057DEF240BF55BB8
:100DDD00E4FFFE7D207C41AB4EAA4DA94CA84B12E1
:100DED00002612016A7C007D0A12057D8D5CE54AA4
:100DFD006401709D78257C00FD7BFF7A10791612B9
:100E0D0007A2EF3395E04F70887560FF756110751F
:100E1D00621F854E66854D65854C64854B63FB7AF7
:100E2D000079371208707B007A007937121093E43D
:050E3D00F54A020D9EC4
:03000B00020ECE14
:100ECE00C0E0C0F0C083C082C0D075D000C000C0EA
:0D0EDE0001C002C003C004C005C006C0076B
:100EEB00120F5A0522E522640A7007F522120C83B1
:100EFB008F4F0523E5236432703AF5231210B88F18
:100F0B0049AC49E41201367B2E7A9079A0783C12D9
:100F1B0000268F548E538D528C51E4FFFE7D907CB6
:100F2B0041AB54AA53A952A8511200268F4E8E4D95
:040F3B008D4C8C4B02
:100F3F00D007D006D005D004D003D002D001D00006
:0B0F4F00D0D0D082D083D0F0D0E032B0
:03002300020FA623
:0D0FA600C0E0C0D075D000C000C006C0077C
:100FB300309820AF99BF0A0F74252550F876007535
:100FC3004A01755000800AAE50055074252EF8A6CC
:030FD30007C298BA
:0B0FD600D007D006D000D0D0D0E03211
:100C830043B00FC2C4D2C2D2B5D2B4E5B0540F7EC2
:100C930000D2C4C2C2D2B5D2B4C4F8540FC868FFDC
:100CA300EEC454F048FEE5B0540FFDEF4DD2C4D26C
:100CB300C2C2B5D2B4C4F8540FC868FFEEC454F02E
:100CC30048FEE5B0540FFDEF4DD2C4D2C2D2B5C237
:100CD300B4C4F8540FC868FFEEC454F048FEE5B03E
:100CE300540FFDEF4DF4FFEEF4FEEF8EF01205F717
:100CF3000D4600010D5A00020D6E00040D8200081E
:100D03000D4100100D5500200D6900400D7D008040
:100D13000D3C01000D5002000D6404000D78080025
:100D23000D3710000D4B20000D5F40000D73800048
:100D330000000D87757901804E75790280497579B8
:100D4300038044757904803F757905803A75790687
:100D530080357579078030757908802B757909801E
:100D63002675790A802175790B801C75790C80179B
:100D730075790D801275790E800D75790F80087560
:090D830079108003E4F579AF79E1
:010D8C002244
:100F5A007580FFE5A0541F44E0F5A0F5A053A01F3B
:100F6A00AF24A8077401088002C333D8FCF580E5D2
:100F7A00A0541F44C0F5A053A01F74552524F8E6B9
:100F8A0090103093F580E5A0541F44E0F5A053A0DB
:0C0F9A001F0524E52464087002F52422E1
:080003008F993099FDC299228A
:101093008B5D8A5E895FAB5DAA5EA95F12052560E1
:1010A30013055FE55F7002055E14F9120525FF1253
:0510B300000380E222B1
:0410D300D2A07F0523
:1010D700000000000000000000000000000000AE5B
:0610E700071FEE70EB2272
:0F117300D2A11210D3C2A17F051210D7C2A022A1
:0C119000C2A11210D3D2A17F050210D71B
:020FE100AD075A
:100FE300E4FCECC39408748094805024C2A07F0571
:100FF3001210D7ED30E704D2A18002C2A17F0512FF
:1010030010D7D2A0ED25E0FD7F051210D70C80D2BA
:02101300C2A079
:0110150022B8
:10106D00E4FCECC394087480948050171210D3EDF7
:10107D0025E0FD30A103430501C2A07F051210D765
:05108D000C80DFAF053F
:01109200223B
:03000E00120FE1ED
:100011001210D3A2A1E433FDC2A07F051210D7AF05
:0100210005D9
:0100220022BB
:1010ED00C2A0EF24FF92A17F051210D71210D3C218
:0810FD00A0D2A17F050210D76B
:10110500AD071FED600FE4FEEEC39470748094800C
:0511150050EE0E80F316
:01111A0022B2
:10111B001211737F9012000E7F0312000E121190AA
:05112B007F0A0211051E
:1010B8001211737F91120FE112001112106DAD071A
:0A10C8007F011210ED121190AF0528
:0110D20022FB
:10002600EC4D6011E8497017ED33EC3304600DE4D4
:10003600FCFFFEFD22E933E8330470F80201D61214
:1000460001A158046009E4CC248150062850090215
:1000560001E02840030201DDC0E0EB4A7044B980AC
:1000660006D0E0FB0201CCEF4E701CBD8008EBFF12
:10007600EAFEE9FD80EBE98DF0A4FEE5F002010F52
:10008600E9CDF9EAFEEBFFEF89F0A4FCE5F0CE89B5
:10009600F0A42EFFE435F0CD89F0A42DFEE435F072
:1000A6008067EF4E7005BD80D780C3EF8BF0A4ACA0
:1000B600F0EE8BF0A42CFCE435F0F8EF8AF0A42CDB
:1000C600E5F038FCE433CB8DF0A42CFCE5F03BF8EE
:1000D600EE8AF0A42CFCE5F038F8E433CF89F0A4DE
:1000E6002CFCE5F038CF3400CE89F0A42FFFE5F0E4
:1000F6003EFEE433C98DF0A42EFEE5F039CD8AF03C
:10010600A42FFFE5F03EFEE43DFD33D0E0FB5007B3
:100116000BBB000F0201E0EC2CFCEF33FFEE33FECD
:06012600ED33FD0201B8FB
:10012C0075F020800E75F010800575F0087D007E4E
:10013C00007F003392D530D5031205B3EC33401059
:10014C00EF33FFEE33FEED33FDEC33FCD5F0ED2257
:0E015C00E5F0247EA2D513CC92E7CDCEFF2293
:10016A00EDD2E7CD33EC3392D524814006E4FFFE8D
:10017A00FDFC22FCE4CFCECDCC24E0501174FF80EC
:10018A00EDC3CC13CCCD13CDCE13CECF13CF047089
:07019A00F030D5DE0205B3D1
:10081400E5742460F8E6057422785D300702786098
:10082400E475F0011205C10205252000EB7F2ED2EC
:10083400008018EF540F2490D43440D4FF30040BBC
:10084400EF24BFB41A0050032461FFE5756002155C
:10085400750578E5787002057730070D785DE475E5
:10086400F0011205C1EF02056B0210467403D207B2
:100874008003E4C207F5748B5D8A5E895FE4F575D5
:10088400F577F578E57560077F2012084F80F575D8
:1008940076FFC201C200C202C203C205C206C20878
:1008A40012081DFF700D3007057F00120860AF7835
:1008B400AE7722B4255FC2D5C20412081DFF24D02E
:1008C400B40A00501A75F00A787530D50508B6FFD9
:1008D4000106C6A426F620D5047002D20380D924CA
:1008E400CFB41A00EF5004C2E5D204020B4DD2017A
:1008F40080C6D20080C0D20280BCD2D580BAD205D4
:1009040080B47F2012084F2002077401B57500409F
:10091400F1120814FF12084F020888D208D2068088
:1009240095120814FB120814FA120814F94A4B70B1
:100934000679447A0C7BFF20022EE575602A7E003E
:100944008E8275830012053E60060EEE657670F0A9
:10095400C2D5EBC0E0EAC0E0E9C0E0EE120BADD0D6
:10096400E0F9D0E0FAD0E0FB120525FF60AAEBC065
:10097400E0EAC0E0E9C0E012084FD0E02401F9D079
:10098400E03400FAD0E0FBE5760460DCD576D9806B
:1009940087D20280A2120B9060F7E57670010412F0
:1009A40001EBA976600DE576600914F576120C3733
:1009B400EF60F3EA30E702F404C3995077EAF425D0
:1009C400760430E701E404F576800D120B9060C1E3
:1009D400EA057625761201EBEA7873F630E701E44E
:1009E400257604D5760420050114120BADE4C0E08D
:1009F400120C377873E6601320E70714F6120837F1
:100A0400802204F6D0E014C0E07F00120837E576B7
:100A1400600712082E1576800B30050312082ED0BD
:100A2400E0020888D0E00480C5120B9060A0E5764F
:100A3400041201EB7873EAF6E576200502600104FE
:050A44002404120BADBB
:100A490074FF04C0E0120C37120837E5762005025E
:100A5900600312082ED0E0B576E87F451208417888
:100A690073E67F2B30E7047F2DF404C0E012084FB2
:100A7900D0E075F00A84C0F0120838D0E0120838C6
:100A8900020888791080027908C206C2088008D253
:100A9900D5790A8004790AC2D5E576047002F5761B
:100AA900E4FAFDFEFF120814FC7B0820011312086A
:100AB90014FD7B1030000A120814FE120814FF7B83
:100AC90020EC3382D592D55013C3E43000069FFF42
:100AD900E49EFEE42001039DFDE49CFCE4CBF8C206
:100AE90001EC700CCFCECDCCE824F8F870F3801768
:100AF900C3EF33FFEE33FEED33FDEC33FCEB33FB99
:100B0900994002FB0FD8E9EB300105F8D0E0C44861
:100B1900B201C0E00AEC4D4E4F78207B0070C2EA6A
:100B2900B5760040BCC0E0120BAFD0F0D0E0200198
:100B390004C4C0E0C4B201C0F0120838D0F0D5F046
:100B4900EB0208881205D10925530A8C5808F64C7E
:100B590008F2420A904F0A98440A9849090B430A35
:100B69009E5509CF460A2D450999470C645008FA44
:100B79002D08FE2E09212B090223091F200C4D2ABD
:100B890008BA4800000919E576B4FF03757606121C
:100B99000814FC120814FD120814FE120814FF7838
:100BA9006C02021A790AA2D5200314300509B9107A
:100BB900020404B9080104A2D52006025001042048
:100BC90002689202B575005034C0E07F20300319E5
:100BD9007F30A20272067205500F120C06C202C2C1
:100BE90006C205C2087F30800F300503E9C0E01254
:100BF900084F300503D0E0F9D0E0B575CC300517C2
:100C09007F30B9100C12084F7F583004077F788065
:100C190003B9080312084F3002057F2D02084F7FE0
:100C2900202008F87F2B2006F322920280CF7F0034
:100C3900B407005005246CF8E6FF22286E756C6C29
:100C49002900D2011208143001F8C201787530D593
:100C59000108F60208BA2D50434958120814240312
:100C6900B405004001E4900C5F93120840743A12F5
:0A0C79000840D203757504020A8CCE
:1001A100E9D2E7C933E833F892D5EDD2E7CD33ECA4
:0701B10033FC5002B2D5221D
:1001B800EC30E7100FBF000C0EBE00080DBD0004A8
:1001C8000BEB6014A2D5EB13FCED92E7FD2274FF54
:1001D800FCFDFEFF22E480F8A2D574FF13FC7D80AD
:0301E800E480EFC1
:1001EB00F920E72824F950037907E4F42402FB18DB
:1001FB00DBFDE624FB5014E9600DE4F618E604F68B
:0F020B00B40A08E4F6D9F57401F60A22C2D52226
:10021A00ED33EC3392D5FA602AB4FF33EDC2E77BB3
:10022A00FF60067A02793FE4227A02794820D504EF
:10023A007A027943224E614E002B494E46002D49DF
:10024A004E4600E47A08F608DAFC7B00740722E8D6
:10025A00C0E0ECC0E0EDC0E0EEC0E0EFC0E0EA755F
:10026A00F010A4CAABF075F04DA42BFBE435F0FCFA
:10027A00EA2410FAEB34C5FBEC34D9FCEDC2E7FFF3
:10028A0075F056A4F42411C5F0F434C58FF0A42AED
:10029A00E5F03BE43CF620E7141204E5D0E0FFD099
:1002AA00E0FED0E0FDD0E0FC1204188014F4041241
:1002BA0004E5D0E0FFD0E0FED0E0FDD0E0FC120083
:1002CA0026D0E0F8E6FAEDD2E7CD33EC332482FB10
:1002DA00E4C3CF33CFCE33CECD33CD33DBF37B077D
:1002EA0075F00A846004F6081B0AE5F0F6088FF038
:1002FA00740AA4FFACF08EF0740AA42CFEACF05081
:10030A00010C8DF0740AA42CFDE435F0F608DBDE4E
:03031A0074072243
:10031D000201D6E86480F8E933E83360110460F037
:10032D00ED33EC337009E8FCE9FDEAFEEBFF220446
:10033D0060DED3EB9FEA9EE99DE8C2E78CF0C2F741
:10034D0095F0400CE8CCF8E9CDF9EACEFAEBCFFB0D
:10035D001201A185D0F05804700320D5B3E80470C4
:10036D00075002B2D50201E092D5EC0460F7E4CC5F
:10037D00C0E0C398F8603B94186008400DD0E0FBD6
:10038D000201B8E4FBFAC9FC8028E830E406E4C9B0
:10039D00FBE4CAFCE830E305E4C9CACBFCE854072A
:1003AD006010F8C3E913F9EA13FAEB13FBEC13FC35
:1003BD00D8F130F52FC3E49CFCEF9BFFEE9AFEEDD8
:1003CD0099FDD0E0FBEF4E4D4C701222DB03020184
:1003DD00DDEC2CFCEF33FFEE33FEED33FDED30E7BE
:1003ED00EB0201B8EF2BFFEE3AFEED39FDD0E0FB4D
:1003FD0050130BBB00030201E0ED13FDEE13FEEFF6
:08040D0013FFEC13FC0201B81F
:100415000201E0EC5D046005E8590470030201D6B1
:100425001201A1580460F6EC4860F2EC7004FDFE80
:10043500FF22C860DB2481C85009C39860025006BA
:100445000201DD9850CAF582E9294B4A7005AB8255
:100455000201CC75F0007C1A7880C3EF9BEE9AED13
:1004650099400DC3EF9BFFEE9AFEED99FDE842F032
:10047500DC23ACF0D0E0FFD0E0FED0E0FDAB822085
:10048500E7101BEB60BAEC2CFCEF33FFEE33FEED0F
:1004950033FD0201B8E803F830E705C0F075F00058
:1004A500EF2FFFEE33FEED33FD40B830E7C280AAF3
:1004B5003F8000004120000042C80000447A00004F
:1004C500461C400047C35000497424004B189680D1
:1004D5004CBEBC205A0E1BCA6753C21C749DC5AEC8
:1004E500FB60065407601C2323120513EB54386088
:1004F500091204FF12050E120026ECF8EDF9EEFACA
:10050500EFCB22EB12050E80F1543803241C900426
:10051500B5FE93FC0EEE93FD0EEE930ECE93FF22E9
:100E4E00020D8DE493A3F8E493A34003F68001F220
:100E5E0008DFF48029E493A3F85407240CC8C333A5
:100E6E00C4540F4420C8834004F456800146F6DF74
:100E7E00E4800B0102040810204080901182E47E71
:100E8E00019360BCA3FF543F30E509541FFEE49369
:100E9E00A360010ECF54C025E060A840B8E493A330
:100EAE00FAE493A3F8E493A3C8C582C8CAC583CA5B
:100EBE00F0A3C8C582C8CAC583CADFE9DEE780BE13
:01118F00005F
:10052500BB010689828A83E0225002E722BBFE02D4
:09053500E32289828A83E4932207
:10053E00BB010CE58229F582E5833AF583E0225072
:10054E0006E92582F8E622BBFE06E92582F8E222BC
:0D055E00E58229F582E5833AF583E49322D6
:10056B00BB010689828A83F0225002F722BBFE016F
:02057B00F32269
:10057D00C2D5EC30E709B2D5E4C39DFDE49CFCEE99
:10058D0030E715B2D5E4C39FFFE49EFE1207BFC34B
:10059D00E49DFDE49CFC80031207BF30D507C3E446
:0605AD009FFFE49EFE2208
:0E05B300C3E49FFFE49EFEE49DFDE49CFC2259
:1005C100FAE6FB0808E6F925F0F618E6CA3AF6223B
:1005D100D083D082F8E4937012740193700DA3A3B9
:1005E10093F8740193F5828883E4737402936860CD
:0605F100EFA3A3A380DFCD
:1005F700D083D082F8E4937012740193700DA3A393
:1006070093F8740193F5828883E473740293B5F0C9
:0D061700067403936860E9A3A3A3A380D831
:10104600EFB40A07740D121051740A309811A8995A
:10105600B8130CC2983098FDA899C298B811F6300A
:0710660099FDC299F59922E2
:10062400E3F5F009E208B5F06D606B80F3E3F5F0F3
:1006340009E608B5F060605E80F387F009E608B566
:10064400F054605280F487F009E208B5F04860463F
:1006540080F488828C8387F009E0A3B5F038603693
:1006640080F488828C8387F009E493A3B5F0276033
:100674002580F388828C83E3F5F009E0A3B5F016B6
:10068400601480F388828C83E3F5F009E493A3B5C6
:10069400F004600280F202074F808580E7808E803C
:1006A400D2803C8015806C807E809B80B5808B805E
:1006B400A1804F8070803A02075B89828A83ECFABA
:1006C400E493F5F0A3C8C582C8CCC583CCE493A356
:1006D400C8C582C8CCC583CCB5F070606E80E18992
:1006E400828A83E493F5F0A3E208B5F05E605C804F
:1006F400F289828A83E0F5F0A3E608B5F04D604BF9
:1007040080F389828A83E0F5F0A3E208B5F03C60C7
:100714003A80F389828A83E493F5F0A3E608B5F07E
:100724002A602880F2805389828A83ECFAE493F564
:10073400F0A3C8C582C8CCC583CCE0A3C8C582C811
:10074400CCC583CCB5F004600280E27FFFB5F00233
:100754000F2240027F012289828A83ECFAE0F5F0BD
:10076400A3C8C582C8CCC583CCE0A3C8C582C8CC05
:10077400C583CCB5F0D560D380E389828A83ECFA53
:10078400E0F5F0A3C8C582C8CCC583CCE493A3C864
:10079400C582C8CCC583CCB5F0B160AF80E288F027
:1007A400ED2402B4040050A3F582EB2402B4040047
:0B07B4005099232345822390069D737B
:1007BF00BC000BBE0029EF8DF084FFADF022E4CC1E
:1007CF00F875F008EF2FFFEE33FEEC33FCEE9DECE7
:1007DF00984005FCEE9DFE0FD5F0E9E4CEFD22ED2D
:1007EF00F8F5F0EE8420D21CFEADF075F008EF2F77
:1007FF00FFED33FD4007985006D5F0F222C398FD68
:05080F000FD5F0EA2204
:00000001FF
