:03000000020FC626
:0C0FC600787FE4F6D8FD75815F02100D05
:1011D20052657475726E004E6F697365733A25338A
:1011E2002E316664620D0A0055312025362E316695
:0711F20000553225366400B0
:0F12DB00014041013600014100C10AC10BC109A8
:1012B60012000E12126B12129F120E5F1210AA1259
:0412C600110180F59D
:0300230002105276
:10105200C0E0C083C082C0D075D000C00730983DC8
:1010620085992AE52AAF41B46E22054174042FF511
:1010720082E43400F583E52AF074042541F582E424
:101082003400F583E4F0D209F541800F0541740480
:101092002FF582E43400F583E52AF0C298D007D018
:0810A200D0D082D083D0E032EF
:03000B00020F24BD
:100F2400C0E0C0F0C083C082C0D075D000C000C093
:100F340001C002C003C004C005C006C0070523E504
:100F44002370020522FFAE22BE0109BF2C067522C2
:100F5400007523000526E52670020525640A45254B
:100F64007004F525F5260543E54370020542FFAEFE
:100F740042BE0109BF2C067542007543007B007A0E
:100F8400007938AD371211740537E53764087002FB
:100F9400F537300B020536E53664647005F53663C3
:100FA4002704AF271212EBD007D006D005D004D007
:100FB40003D002D001D000D0D0D082D083D0F0D0E2
:020FC400E03219
:100E5F00E52345226003020F231211A4AC07E4120D
:100E6F00024FE4FBFA79907841120026E4FBFA79FD
:100E7F004C784212012F9000001205EF200A6B30C0
:100E8F00094878047C007D017BFF7A1179D2120723
:100E9F00DCEF3395E04F70327547FF754811754998
:100EAF00D9900000E0FCA3E0FDA3E0FEA3E0F54D28
:100EBF008E4C8D4B8C4A7B017A0079161208557B2C
:100ECF00017A007916121246C2097547FF7548114B
:100EDF007549EA900000E0FCA3E0FDA3E0FEA3E06B
:100EEF00F54D8E4C8D4B8C4A800F7547FF75481111
:100EFF007549F3754A0085404B7B007A00792B12B8
:100F0F0008557547007548007549387B007A007998
:050F1F002B120D6F22F2
:1010AA00E52645257050120C688F24E5296524FF32
:1010BA005524F528E524F45FF535852429E5282407
:1010CA00F0600D14601C2405702CA20AB3920A2247
:1010DA00C3E540945A74809480501B300A187405F2
:1010EA008010D3E5409400748094804009300A0649
:0710FA0074FB2540F54022C4
:10110100E54345427037200A084327015327FD80F4
:10111100064327025327FEAC40E412024F90000021
:10112100E0F8A3E0F9A3E0FAA3E0FB1201CC60052B
:0E1131004003D20B22C20BE4F5365327FB22FB
:10126B00E4F580E5A0541F44A0F5A053A01F7580A2
:0D127B00FFE5A0541F4480F5A053A01F22E2
:10000E00538E7F5389F0758A18758CFCC28DD28CF5
:05001E00D2A9D2AF22BF
:060D6F008B448A45894611
:100D7500E4F54AF54BC3E54A940874809480400332
:100D8500020E5EAB44AA45A946854B8275830012C7
:100D9500058012060B0E24200E262D0DD4300DD9FC
:100DA500310DDE320DE3330DE8340DED350DF23640
:100DB5000DF7370DFC380E01390E06410E0B420EAC
:100DC50010430E15440E1A450E1F5500000E2475CE
:100DD5004CC08055754CF98050754CA4804B754CB2
:100DE500B08046754C998041754C92803C754C821B
:100DF5008037754CF88032754C80802D754C90800D
:100E050028754C888023754C83801E754CC68019C7
:100E1500754CA18014754C86800F754CC1800A8075
:100E250005754CBF8003754CFF854B82758300A308
:100E3500AB44AA45A946120580B42E05534C7F053F
:100E45004BAB47AA48A949854A82758300E54C12F0
:090E550005BF054A054B020D7AA8
:010E5E002271
:10117400A8057401088002C333D8FCF580E5A054A7
:101184001F44C0F5A053A01FAF058F8275830012C2
:101194000580F580E5A0541F44E0F5A053A01F226C
:100C6800C2C4D2C2D2B5D2B4E5B0540F7E00C2C25B
:100C7800D2C4D2B5D2B4C4F8540FC868FFEEC45475
:100C8800F048FEE5B0540FFDEF4DC2B5D2C2D2C454
:100C9800D2B4C4F8540FC868FFEEC454F048FEE557
:100CA800B0540FFDEF4DC2B4D2C2D2B5D2C4C4F80D
:100CB800540FC868FFEEC454F048FEE5B0540FFD69
:100CC800EF4DF4FFEEF4FEEF8EF01206310D6400E6
:100CD800010D5F00020D5A00040D5500080D50006B
:100CE800100D4B00200D4600400D4100800D3C01C9
:100CF800000D3702000D3204000D2D08000D2810DC
:100D0800000D2320000D1E40000D19800000000D6D
:100D180069754404804E75440580497544068044CD
:100D2800754407803F754408803A754409803575D5
:100D3800440A803075440B802B75440C802675441A
:100D48000D802175440E801C75440F801775441062
:100D58008012754411800D75441280087544138003
:060D680003E4F544AF4472
:010D6E002262
:04130A00D2A07F05E9
:08130E0000AE071FEE70F9228A
:0F12FB00D2A112130AC2A17F0512130EC2A022A4
:0C131600C2A112130AD2A17F0502130E1F
:10128800C2A0A20092A17F0512130E12130AC2A0D7
:07129800D2A17F0502130E35
:1012CA0012130AA2A19200C2A07F0512130EA20055
:0112DA0022F1
:02113F00AD07FA
:10114100E4FCECC39408748094805024C2A07F0511
:1011510012130EED30E704D2A18002C2A17F051265
:10116100130ED2A0ED25E0FD7F0512130E0C80D2E7
:02117100C2A01A
:011173002259
:10122000E4FCECC3940874809480501712130AED08
:1012300025E0FD30A103430501C2A07F0512130E76
:051240000C80DFAF058A
:011245002286
:1011A4001212FB7F9012113F1212CA7F4312113F99
:1011B4001212CA1212FB7F9112113F1212CA12129A
:0D11C400208F44D200121288121316AF447F
:0111D10022FB
:1012EB00EFF4F580E5A0541F4480F5A053A01F2216
:10129F00759850438E01538EFB75D7E675D6FF4375
:0712AF008E10D2ACD2AF2279
:080003008F993099FDC299228A
:101246008B448A458946AB44AA45A9461205676080
:10125600130546E5467002054514F9120567FF12A7
:05126600000380E222FC
:10002600EC4D6011E8497017ED33EC3304600DE4D4
:10003600FCFFFEFD22E933E8330470F80202B81231
:10004600028358046009E4CC248150062850090232
:1000560002C22840030202BFC0E0EB4A7044B980E6
:1000660006D0E0FB0202AEEF4E701CBD8008EBFF2F
:10007600EAFEE9FD80EBE98DF0A4FEE5F002010F52
:10008600E9CDF9EAFEEBFFEF89F0A4FCE5F0CE89B5
:10009600F0A42EFFE435F0CD89F0A42DFEE435F072
:1000A6008067EF4E7005BD80D780C3EF8BF0A4ACA0
:1000B600F0EE8BF0A42CFCE435F0F8EF8AF0A42CDB
:1000C600E5F038FCE433CB8DF0A42CFCE5F03BF8EE
:1000D600EE8AF0A42CFCE5F038F8E433CF89F0A4DE
:1000E6002CFCE5F038CF3400CE89F0A42FFFE5F0E4
:1000F6003EFEE433C98DF0A42EFEE5F039CD8AF03C
:10010600A42FFFE5F03EFEE43DFD33D0E0FB5007B3
:100116000BBB000F0202C2EC2CFCEF33FFEE33FEEA
:06012600ED33FD02029A18
:10012C000202C2EC5D046005E8590470030202B8D7
:10013C00120283580460F6EC4860F2EC7004FDFE89
:10014C00FF22C860DB2481C85009C39860025006A6
:10015C000202BF9850CAF582E9294B4A7005AB825E
:10016C000202AE75F0007C1A7880C3EF9BEE9AED1C
:10017C0099400DC3EF9BFFEE9AFEED99FDE842F01E
:10018C00DC23ACF0D0E0FFD0E0FED0E0FDAB822071
:10019C00E7101BEB60BAEC2CFCEF33FFEE33FEEDFB
:1001AC0033FD02029AE803F830E705C0F075F00061
:1001BC00EF2FFFEE33FEED33FD40B830E7C280AADF
:1001CC0074F8CC6480CCC86480C8F58204604FC3DA
:1001DC00EB9FF5F0EA9E42F0E99D42F0E89C45F079
:1001EC00603C501DE5825FFFE582D313CB5BCBF403
:1001FC002B5582FB50280ABA002409B9002008802C
:10020C001DE5825BFBE582D313CF5FCFF4C3132FC5
:10021C005582FF50090EBE00050DBD00010CC3EB4D
:10022C009FF5F0EA9E42F0E99D42F0E89C45F060B3
:09023C0007CC4820E701B3EC22D5
:1002450075F020800E75F010800575F0087D007E34
:10025500007F003392D530D5031205E1EC33401011
:10026500EF33FFEE33FEED33FDEC33FCD5F0ED223D
:0E027500E5F0247EA2D513CC92E7CDCEFF2279
:1007F900E55B2447F8E6055B227844300702784731
:10080900E475F0011205FB0205672000EB7F2ED28B
:10081900008018EF540F2490D43440D4FF30040BD7
:10082900EF24BFB41A0050032461FFE55C60021590
:100839005C055FE55F7002055E30070D7844E4757D
:10084900F0011205FBEF0205AD0211F97403D2079D
:100859008003E4C207F55B8B448A458946E4F55C6D
:10086900F55EF55FE55C60077F2012083480F57559
:100879005DFFC201C200C202C203C205C206C208AC
:10088900120802FF700D3007057F00120845AF5F9F
:10089900AE5E22B4255FC2D5C204120802FF24D07D
:1008A900B40A00501A75F00A785C30D50508B6FF0D
:1008B9000106C6A426F620D5047002D20380D924E5
:1008C900CFB41A00EF5004C2E5D204020B32D201B0
:1008D90080C6D20080C0D20280BCD2D580BAD205EF
:1008E90080B47F201208342002077401B55C0040EF
:1008F900F11207F9FF12083402086DD208D20680F6
:10090900951207F9FB1207F9FA1207F9F94A4B7020
:100919000679297A0C7BFF20022EE55C602A7E008D
:100929008E8275830012058060060EEE655D70F09B
:10093900C2D5EBC0E0EAC0E0E9C0E0EE120B92D00C
:10094900E0F9D0E0FAD0E0FB120567FF60AAEBC03E
:10095900E0EAC0E0E9C0E0120834D0E02401F9D0AF
:10096900E03400FAD0E0FBE55D0460DCD55DD980B8
:1009790087D20280A2120B7560F7E55D700104123F
:1009890002CDA95D600DE55D600914F55D120C1CD1
:10099900EF60F3EA30E702F404C3995077EAF425EB
:1009A9005D0430E701E404F55D800D120B7560C14B
:1009B900EA055D255D1202CDEA785AF630E701E4D1
:1009C900255D04D55D0420050114120B92E4C0E0F5
:1009D900120C1C785AE6601320E70714F612081C5B
:1009E900802204F6D0E014C0E07F0012081CE55D07
:1009F9006007120813155D800B300503120813D028
:100A0900E002086DD0E00480C5120B7560A0E55DB9
:100A1900041202CD785AEAF6E55D20050260010468
:050A29002404120B92F1
:100A2E0074FF04C0E0120C1C12081CE55D200502C8
:100A3E006003120813D0E0B55DE87F4512082678F2
:100A4E005AE67F2B30E7047F2DF404C0E012083401
:100A5E00D0E075F00A84C0F012081DD0E012081D17
:100A6E0002086D791080027908C206C2088008D289
:100A7E00D5790A8004790AC2D5E55D047002F55D68
:100A8E00E4FAFDFEFF1207F9FC7B082001131207A2
:100A9E00F9FD7B1030000A1207F9FE1207F9FF7BF1
:100AAE0020EC3382D592D55013C3E43000069FFF5D
:100ABE00E49EFEE42001039DFDE49CFCE4CBF8C221
:100ACE0001EC700CCFCECDCCE824F8F870F3801783
:100ADE00C3EF33FFEE33FEED33FDEC33FCEB33FBB4
:100AEE00994002FB0FD8E9EB300105F8D0E0C4487D
:100AFE00B201C0E00AEC4D4E4F78207B0070C2EA86
:100B0E00B55D0040BCC0E0120B94D0F0D0E02001E7
:100B1E0004C4C0E0C4B201C0F012081DD0F0D5F07C
:100B2E00EB02086D12060B090A530A715808DB4CCA
:100B3E0008D7420A754F0A7D440A7D4908F0430AD8
:100B4E00835509B4460A1245097E470C495008DF01
:100B5E002D08E32E09062B08E7230904200C322A60
:100B6E00089F48000008FEE55DB4FF03755D0612A0
:100B7E0007F9FC1207F9FD1207F9FE1207F9FF78C3
:100B8E00530202FC790AA2D5200314300509B910CC
:100B9E00020404B9080104A2D52006025001042063
:100BAE0002689202B55C005034C0E07F2030031919
:100BBE007F30A20272067205500F120BEBC202C2F8
:100BCE0006C205C2087F30800F300503E9C0E0126F
:100BDE000834300503D0E0F9D0E0B55CCC30051711
:100BEE007F30B9100C1208347F583004077F78809C
:100BFE0003B908031208343002057F2D0208347F32
:100C0E00202008F87F2B2006F322920280CF7F004F
:100C1E00B4070050052453F8E6FF22286E756C6C5D
:100C2E002900D2011207F93001F8C201785C30D5E3
:100C3E000108F602089F2D504349581207F9240364
:100C4E00B405004001E4900C4493120825743A1246
:0A0C5E000825D203755C04020A7138
:10028300E9D2E7C933E833F892D5EDD2E7CD33ECC1
:0702930033FC5002B2D5223A
:10029A00EC30E7100FBF000C0EBE00080DBD0004C5
:1002AA000BEB6014A2D5EB13FCED92E7FD2274FF71
:1002BA00FCFDFEFF22E480F8A2D574FF13FC7D80CA
:0302CA00E480EFDE
:1002CD00F920E72824F950037907E4F42402FB18F8
:1002DD00DBFDE624FB5014E9600DE4F618E604F6A8
:0F02ED00B40A08E4F6D9F57401F60A22C2D52244
:1002FC00ED33EC3392D5FA602AB4FF33EDC2E77BD1
:10030C00FF60067A037921E4227A03792A20D50446
:10031C007A037925224E614E002B494E46002D4919
:10032C004E4600E47A08F608DAFC7B00740722E8F3
:10033C00C0E0ECC0E0EDC0E0EEC0E0EFC0E0EA757C
:10034C00F010A4CAABF075F04DA42BFBE435F0FC17
:10035C00EA2410FAEB34C5FBEC34D9FCEDC2E7FF10
:10036C0075F056A4F42411C5F0F434C58FF0A42A0A
:10037C00E5F03BE43CF620E714120527D0E0FFD073
:10038C00E0FED0E0FDD0E0FC12012F8014F404124A
:10039C000527D0E0FFD0E0FED0E0FDD0E0FC12005D
:1003AC0026D0E0F8E6FAEDD2E7CD33EC332482FB2D
:1003BC00E4C3CF33CFCE33CECD33CD33DBF37B079A
:1003CC0075F00A846004F6081B0AE5F0F6088FF055
:1003DC00740AA4FFACF08EF0740AA42CFEACF0509E
:1003EC00010C8DF0740AA42CFDE435F0F608DBDE6C
:0303FC0074072261
:1003FF000202B8E86480F8E933E83360110460F072
:10040F00ED33EC337009E8FCE9FDEAFEEBFF220463
:10041F0060DED3EB9FEA9EE99DE8C2E78CF0C2F75E
:10042F0095F0400CE8CCF8E9CDF9EACEFAEBCFFB2A
:10043F0012028385D0F05804700320D5B3E80470FE
:10044F00075002B2D50202C292D5EC0460F7E4CC99
:10045F00C0E0C398F8603B94186008400DD0E0FBF3
:10046F0002029AE4FBFAC9FC8028E830E406E4C9EA
:10047F00FBE4CAFCE830E305E4C9CACBFCE8540747
:10048F006010F8C3E913F9EA13FAEB13FBEC13FC52
:10049F00D8F130F52FC3E49CFCEF9BFFEE9AFEEDF5
:1004AF0099FDD0E0FBEF4E4D4C701222DB030202A0
:1004BF00BFEC2CFCEF33FFEE33FEED33FDED30E7F9
:1004CF00EB02029AEF2BFFEE3AFEED39FDD0E0FB87
:1004DF0050130BBB00030202C2ED13FDEE13FEEF30
:0804EF0013FFEC13FC02029A5A
:1004F7003F8000004120000042C80000447A00000D
:10050700461C400047C35000497424004B1896808E
:100517004CBEBC205A0E1BCA6753C21C749DC5AE85
:10052700FB60065407601C2323120555EB54386003
:1005370009120541120550120026ECF8EDF9EEFA02
:10054700EFCB22EB12055080F1543803241C9004A2
:10055700F7FE93FC0EEE93FD0EEE930ECE93FF2265
:100FD2000212B6E493A3F8E493A34003F68001F26D
:100FE20008DFF48029E493A3F85407240CC8C33320
:100FF200C4540F4420C8834004F456800146F6DFEF
:10100200E4800B01020408102040809012DBE47E91
:10101200019360BCA3FF543F30E509541FFEE493E3
:10102200A360010ECF54C025E060A840B8E493A3AA
:10103200FAE493A3F8E493A3C8C582C8CAC583CAD5
:10104200F0A3C8C582C8CAC583CADFE9DEE780BE8D
:0112EA000003
:10056700BB010689828A83E0225002E722BBFE0292
:09057700E32289828A83E49322C5
:10058000BB010CE58229F582E5833AF583E0225030
:1005900006E92582F8E622BBFE06E92582F8E2227A
:0D05A000E58229F582E5833AF583E4932294
:1005AD00BB010689828A83F0225002F722BBFE012D
:0205BD00F32227
:1005BF00F8BB010DE58229F582E5833AF583E8F072
:1005CF00225006E92582C8F622BBFE05E92582C81E
:0205DF00F22206
:0E05E100C3E49FFFE49EFEE49DFDE49CFC222B
:0C05EF00ECF0A3EDF0A3EEF0A3EFF0227F
:1005FB00FAE6FB0808E6F925F0F618E6CA3AF62201
:10060B00D083D082F8E4937012740193700DA3A37E
:10061B0093F8740193F5828883E473740293686092
:06062B00EFA3A3A380DF92
:10063100D083D082F8E4937012740193700DA3A358
:1006410093F8740193F5828883E473740293B5F08F
:0D065100067403936860E9A3A3A3A380D8F7
:1011F900EFB40A07740D121204740A309811A899F1
:10120900B8130CC2983098FDA899C298B811F63055
:0712190099FDC299F599222D
:10065E00E3F5F009E208B5F06D606B80F3E3F5F0B9
:10066E0009E608B5F060605E80F387F009E608B52C
:10067E00F054605280F487F009E208B5F048604605
:10068E0080F488828C8387F009E0A3B5F038603659
:10069E0080F488828C8387F009E493A3B5F02760F9
:1006AE002580F388828C83E3F5F009E0A3B5F0167C
:1006BE00601480F388828C83E3F5F009E493A3B58C
:1006CE00F004600280F2020789808580E7808E80C8
:1006DE00D2803C8015806C807E809B80B5808B8024
:1006EE00A1804F8070803A02079589828A83ECFA46
:1006FE00E493F5F0A3C8C582C8CCC583CCE493A31C
:10070E00C8C582C8CCC583CCB5F070606E80E18957
:10071E00828A83E493F5F0A3E208B5F05E605C8014
:10072E00F289828A83E0F5F0A3E608B5F04D604BBE
:10073E0080F389828A83E0F5F0A3E208B5F03C608D
:10074E003A80F389828A83E493F5F0A3E608B5F044
:10075E002A602880F2805389828A83ECFAE493F52A
:10076E00F0A3C8C582C8CCC583CCE0A3C8C582C8D7
:10077E00CCC583CCB5F004600280E27FFFB5F002F9
:10078E000F2240027F012289828A83ECFAE0F5F083
:10079E00A3C8C582C8CCC583CCE0A3C8C582C8CCCB
:1007AE00C583CCB5F0D560D380E389828A83ECFA19
:1007BE00E0F5F0A3C8C582C8CCC583CCE493A3C82A
:1007CE00C582C8CCC583CCB5F0B160AF80E288F0ED
:1007DE00ED2402B4040050A3F582EB2402B404000D
:0B07EE00509923234582239006D77307
:00000001FF
