:030000000200BD3E
:0C00BD00787FE4F6D8FD75811A0201047A
:0B03D500C0F9A4B0999282F88090FF5C
:10032C0002170000011900011A00080E0A0A0A0A35
:07033C000A0A0A0A010D0084
:1001D50012039C1203AB438EC0758ACD758CD4C2B5
:1001E5008DD28CD2A9758BF5758DFFC28FD28ED22B
:1001F500ABD2AF120387851A0EE51675F06484F548
:1002050013E51675F06484AFF0EF75F00A84F51404
:0A021500EF75F00A8485F01580DC17
:03000B0002001ED2
:10001E00C0E0C0F0C083C082C0D075D000C000C0A8
:0D002E0001C002C003C004C005C006C00729
:10003B000508E50864027034F508AF19EF3395E055
:10004B004F700A0518E518700C05178008E5181590
:10005B001870021517E518B4F40AE517B401057505
:10006B0019018008E51845177002F519050AE50A0C
:10007B0070020509FFAE09BE031ABFE81775090028
:10008B00750A00051AAF1AEF3395E0FEEF64084EC0
:07009B007002F51A12021FAA
:1000A200D007D006D005D004D003D002D001D000B2
:0B00B200D0D0D082D083D0F0D0E0325C
:03001B0002014996
:10014900C0E0C0F0C083C082C0D075D000C000C07C
:0D01590001C002C003C004C005C006C007FD
:10016600050CE50C7002050BD39518E50B95175099
:1001760010E5A0541F4480F5A0AF1A12026953A0DF
:100186001FD3E50C9518E50B95174018E50C94E878
:10019600E50B9403500EE5A0541F4480F5A075802E
:1001A600FF53A01FE50CB4E80BE50BB40306750B73
:0401B60000750C00C4
:1001BA00D007D006D005D004D003D002D001D00099
:0B01CA00D0D0D082D083D0F0D0E03243
:0F039C00E5A0541F44A0F5A0E4F58053A01F2254
:0F03AB00E5A0541F4480F5A07580FF53A01F22CA
:10021F00E5A0541F44E0F5A07580FF53A01FAF0D5C
:10022F00A8077401088002C333D8FCF580E5A054F9
:10023F001F44C0F5A053A01F740E250DF8E69003C0
:10024F00D593F580E5A0541F44E0F5A053A01F05FA
:09025F000DE50D64087002F50DB7
:010268002273
:10026900EFB40800503E900276F828287302028EF7
:1002790002029202029602029A02029E0202A2025D
:1002890002A60202AA7580FE227580FD227580FBF6
:10029900227580F7227580EF227580DF227580BF75
:0502A9002275807F2298
:04000E00D2A07F05F8
:0800120000AE071FEE70F92299
:0F03BA00D2A112000EC2A17F05120012C2A02212
:0C03C900C2A112000ED2A17F050200129A
:0202AE00AD079A
:1002B000C2AFE4FCECC39408748094805024C2A0C4
:1002C0007F05120012ED30E704D2A18002C2A17FA7
:1002D00005120012D2A0ED25E0FD7F051200120CE0
:0602E00080D2D2AFC2A0E3
:0102E60022F5
:030372001202AEC6
:1003750012000EA2A1E433FDC2A07F05120012AF48
:010385000572
:010386002254
:1002E700C2AFE4FCECC394087480948050171200EA
:1002F7000EED25E0FD30A103430501C2A07F0512E5
:0903070000120C80DFD2AFAF053B
:0103100022CA
:10034400C2A0EF24FF92A17F0512001212000EC278
:08035400A0D2A17F05020012F6
:10035C00AD071FED600FE4FEEEC3947074809480C3
:05036C0050EE0E80F3CD
:010371002269
:100387001203BA7F901203727F031203721203C91A
:050397007F0A02035C77
:100311001203BA7F911202AE1203751202E7AD0702
:0A0321007F011203441203C9AF0567
:01032B0022AF
:1000C9000201D5E493A3F8E493A34003F68001F277
:1000D90008DFF48029E493A3F85407240CC8C33338
:1000E900C4540F4420C8834004F456800146F6DF07
:1000F900E4800B010204081020408090032CE47E68
:10010900019360BCA3FF543F30E509541FFEE493FB
:10011900A360010ECF54C025E060A840B8E493A3C2
:10012900FAE493A3F8E493A3C8C582C8CAC583CAED
:10013900F0A3C8C582C8CAC583CADFE9DEE780BEA5
:0103430000B9
:00000001FF
