:0300000002061ED7
:0C061E00787FE4F6D8FD75813D0206658A
:10086700C0F9A4B0999282F88090FF40792430199A
:080877001202780010FFC18E8F
:1007FD0008360A0A0A0A0A0A0A0A01280002300003
:0D080D0000012C00012A0001270001290034
:0F090F00E4F580E5A0541F44A0F5A053A01F22DB
:0F091E007580FFE5A0541F4480F5A053A01F2251
:1008EF007589F4758AFF758CFFC28DD28CD2A922BF
:1008FF0053890F758B18758DFCC28FD28ED2AB2298
:1008AE0012090F12091E1208EF1208FF1208DAD2EF
:0608BE00AF1208C480FB2C
:03000B0002000EE2
:0D000E00C0E0052EE52E7002052DD0E03279
:03001B0002042CB0
:10042C00C0E0C0F0C083C082C0D075D000C000C096
:0D043C0001C002C003C004C005C006C00717
:100449001207171209620521E521640A7014F521C2
:10045900852B2F1203228F2BE52FC3952B500312C7
:1004690007B00522E52264327023F5221207878F2F
:1004790026AC26E41201A77B2E7A9079A0783C124B
:10048900001E8F358E348D338C3212093C0524E5DC
:100499002470020523FFAE23BE0315BFE812852D84
:1004A90030852E31752D00752E00752300752400B9
:1004B900D007D006D005D004D003D002D001D00097
:0B04C900D0D0D082D083D0F0D0E03241
:1003220043B00FC2C4D2C2D2B5D2B4E5B0540F7E2C
:1003320000D2C4C2C2D2B5D2B4C4F8540FC868FF46
:10034200EEC454F048FEE5B0540FFDEF4DD2C4D2D6
:10035200C2C2B5D2B4C4F8540FC868FFEEC454F098
:1003620048FEE5B0540FFDEF4DD2C4D2C2D2B5C2A1
:10037200B4C4F8540FC868FFEEC454F048FEE5B0A8
:10038200540FFDEF4DF4FFEEF4FEEF8EF01202F586
:1003920003E5000103F90002040D00040421000832
:1003A20003E0001003F4002004080040041C008055
:1003B20003DB010003EF020004030400041708003A
:1003C20003D6100003EA200003FE4000041280005E
:1003D20000000426750801804E75080280497508E0
:1003E200038044750804803F750805803A75080645
:1003F20080357508078030750808802B75080980DC
:100402002675080A802175080B801C75080C801758
:1004120075080D801275080E800D75080F8008751D
:0904220008108003E4F508AF089E
:01042B0022AE
:100717007580FF75A0FF53A01FAF25A807740108B8
:100727008002C333D8FCF58043A0DF53A01F743683
:100737002525F8E690086793F58075A0FF53A01F5D
:0B0747000525E52564087002F5252259
:1007B000E52B24F7601514601A24FC6012047016EF
:1007C000052CE52C6402700EF52C22632AFF2263AF
:0707D00027FF226329FF222D
:1008C400E529700EE52C1460060470090206AA02DC
:0608D400057C120835222C
:1006AA0075361675370A75380A75390A753A0AE4BD
:1006BA00FFFE7DC87C42AB35AA34A933A8321200AA
:1006CA001E1201DBAB07AA067C007D641202B1EFA1
:1006DA00240BF53B7C007D64AF03AE021202B17EAF
:1006EA00007F0ACFCDCFCECCCE1202B18F3CE4FF31
:1006FA00FE7DC87C42AB35AA34A933A83212001E4B
:0D070A001201DB7C007D0A1202B18D3D2240
:10057C0075361775370A75380AD3E5319410E5309E
:10058C009427400FAE30AF317C277D1012025C8F68
:10059C0039800375390AD3E53194E8E5309403408A
:1005AC001CAE30AF317C277D1012025C7E037FE8DD
:1005BC00CFCDCFCECCCE12025C8F3A8003753A0AE7
:1005CC00D3E5319464E5309400401CAE30AF317CFF
:1005DC00037DE812025C7E007F64CFCDCFCECCCE03
:1005EC0012025C8F3B8003753B0AAE30AF317C004E
:1005FC007D6412025C7E007F0ACFCDCFCECCCE12B2
:10060C00025C8F3CAE30AF317C007D0A12025C8DF7
:02061C003D227D
:1008350075360A75370A75380A75390A753A0A75AB
:090845003B0A753C0A753D0A22CC
:0E093C00E52A70047F668002AF2612087F2233
:0B096200E52770030204D412091E22D6
:1004D400AF2C7E00EF700543080180035308FEEF44
:1004E40064014E700543080280035308FDE4FFFED7
:1004F4007D607C40AB35AA34A933A8321201246054
:10050400025028E4FFFE7DC07C3FAB35AA34A933FA
:10051400A8321201244019E4FFFE7D207C40AB3553
:10052400AA34A933A83212012450054308048003D5
:100534005308FBD3E5319410E53094275015C3E5F7
:100544003194E8E5309403400FE5319488E5309424
:1005540013500543080880035308F7E52A60054350
:10056400081080035308EFE508F4F580E5A0541F54
:070574004480F5A053A01F15
:01057B00225D
:04094A00D2A07F05B3
:08094E0000AE071FEE70F92254
:0F092D00D2A112094AC2A17F0512094EC2A0220F
:0C095600C2A112094AD2A17F0502094E7D
:10089700C2A0A20192A17F0512094E12094AC2A065
:0708A700D2A17F0502094EFA
:08084E0012092D7F90120752E0
:1008560012094AA2A19201C2A07F0512094EA20165
:01086600226F
:02075200AD07F1
:10075400E4FCECC39408748094805024C2A07F0508
:1007640012094EED30E704D2A18002C2A17F051226
:10077400094ED2A0ED25E0FD7F0512094E0C80D272
:02078400C2A011
:010786002250
:1007D700E4FCECC3940874809480501712094AED26
:1007E70025E0FD30A103430501C2A07F0512094E94
:0507F7000C80DFAF05DE
:0107FC0022DA
:10081B00EF1FAA0670011E4A600FE4FDEDC3947032
:09082B007480948050EA0D80F302
:0108340022A1
:1008DA0012084E7F031207521208561209567F0A4F
:0508EA007E0002081B66
:1007870012084E7F431207521208561209561209D1
:100797002D7F911207521208561207D7AD07D201C3
:0807A700120897120956AF0574
:0107AF002227
:10087F00AB0712084E7F40120752120856AF0312F1
:08088F00075212085602095637
:10001E00EC4D6011E8497017ED33EC3304600DE4DC
:10002E00FCFFFEFD22E933E8330470F802024712AA
:10003E00021258046009E4CC2481500628500902AB
:10004E00025128400302024EC0E0EB4A7044B980D0
:10005E0006D0E0FB02023DEF4E701CBD8008EBFFA8
:10006E00EAFEE9FD80EBE98DF0A4FEE5F002010762
:10007E00E9CDF9EAFEEBFFEF89F0A4FCE5F0CE89BD
:10008E00F0A42EFFE435F0CD89F0A42DFEE435F07A
:10009E008067EF4E7005BD80D780C3EF8BF0A4ACA8
:1000AE00F0EE8BF0A42CFCE435F0F8EF8AF0A42CE3
:1000BE00E5F038FCE433CB8DF0A42CFCE5F03BF8F6
:1000CE00EE8AF0A42CFCE5F038F8E433CF89F0A4E6
:1000DE002CFCE5F038CF3400CE89F0A42FFFE5F0EC
:1000EE003EFEE433C98DF0A42EFEE5F039CD8AF044
:1000FE00A42FFFE5F03EFEE43DFD33D0E0FB5007BC
:10010E000BBB000F020251EC2CFCEF33FFEE33FE63
:06011E00ED33FD02022991
:1001240074F8CC6480CCC86480C8F58204604FC382
:10013400EB9FF5F0EA9E42F0E99D42F0E89C45F021
:10014400603C501DE5825FFFE582D313CB5BCBF4AB
:100154002B5582FB50280ABA002409B900200880D4
:100164001DE5825BFBE582D313CF5FCFF4C3132F6E
:100174005582FF50090EBE00050DBD00010CC3EBF6
:100184009FF5F0EA9E42F0E99D42F0E89C45F0605C
:0901940007CC4820E701B3EC227E
:10019D0075F020800E75F010800575F0087D007EDD
:1001AD00007F003392D530D5031202E7EC334010B7
:1001BD00EF33FFEE33FEED33FDEC33FCD5F0ED22E6
:0E01CD00E5F0247EA2D513CC92E7CDCEFF2222
:1001DB00EDD2E7CD33EC3392D524814006E4FFFE1C
:1001EB00FDFC22FCE4CFCECDCC24E0501174FF807B
:1001FB00EDC3CC13CCCD13CDCE13CECF13CF047018
:07020B00F030D5DE0202E72E
:10021200E9D2E7C933E833F892D5EDD2E7CD33EC32
:0702220033FC5002B2D522AB
:10022900EC30E7100FBF000C0EBE00080DBD000436
:100239000BEB6014A2D5EB13FCED92E7FD2274FFE2
:10024900FCFDFEFF22E480F8A2D574FF13FC7D803B
:03025900E480EF4F
:10062A000208AEE493A3F8E493A34003F68001F230
:10063A0008DFF48029E493A3F85407240CC8C333D1
:10064A00C4540F4420C8834004F456800146F6DFA0
:10065A00E4800B01020408102040809007FDE47E2C
:10066A00019360BCA3FF543F30E509541FFEE49395
:10067A00A360010ECF54C025E060A840B8E493A35C
:10068A00FAE493A3F8E493A3C8C582C8CAC583CA87
:10069A00F0A3C8C582C8CAC583CADFE9DEE780BE3F
:01081A0000DD
:10025C00BC000BBE0029EF8DF084FFADF022E4CC86
:10026C00F875F008EF2FFFEE33FEEC33FCEE9DEC4F
:10027C00984005FCEE9DFE0FD5F0E9E4CEFD22ED95
:10028C00F8F5F0EE8420D21CFEADF075F008EF2FDF
:10029C00FFED33FD4007985006D5F0F222C398FDD0
:0502AC000FD5F0EA226D
:1002B100C2D5EC30E709B2D5E4C39DFDE49CFCEE68
:1002C10030E715B2D5E4C39FFFE49EFE12025CC382
:1002D100E49DFDE49CFC800312025C30D507C3E47D
:0602E1009FFFE49EFE22D7
:0E02E700C3E49FFFE49EFEE49DFDE49CFC2228
:1002F500D083D082F8E4937012740193700DA3A398
:1003050093F8740193F5828883E473740293B5F0CE
:0D031500067403936860E9A3A3A3A380D836
:00000001FF
