:030000000211BD2D
:0C11BD00787FE4F6D8FD75817E021204F4
:10168B0053540D0A002425642C25332E32660D0A83
:10169B0000504152410D0A002425642C25640D0A8B
:0116AB00003E
:10164500015501015300016000015600015F1E01B3
:08165500612301281E0151234D
:10148D00E4FF12155E755D008F5E121804121813BD
:10149D0012171E12183D1217F11217B3D2AF1214F4
:0C14AD00B91217DD12170312112680F28D
:03001B00020F8051
:100F8000C0E0C0F0C083C082C0D075D000C000C037
:0D0F900001C002C003C004C005C006C007B8
:100F9D001212D10522E522640A7065F52285161715
:100FAD00120E768F16E517C395165003120D1EE51A
:100FBD0017D395164003755300E55564017032AF94
:100FCD0061EF3395E0FED3E5589FEE6480F87480B1
:100FDD009850057F661217C8AF61EF3395E0FED3C9
:100FED00E5589FEE6480F874809840057FCC121709
:100FFD00C8E55570057F141217C812131B12141E65
:10100D000523E52364647005F5237557010525E572
:10101D002570020524FFAE24BE010CBF2C097524DA
:10102D0000752500755401E51660210527E527702B
:10103D00020526C394E8E52694034010E553700C91
:0C104D001214E57553017526007527008C
:10105900D007D006D005D004D003D002D001D000EB
:0B106900D0D0D082D083D0F0D0E03295
:030023000213E3E2
:0D13E300C0E0C0D075D000C000C006C0073B
:1013F000309820AF99BF0A0F74292560F8760A75D6
:101400005601756000800AAE60056074292EF8A64A
:0314100007C29878
:0B141300D007D006D000D0D0D0E032CF
:1017DD00E5576401700DF5571213A38F5C8E5B8D69
:0417ED005A8C592297
:10170300E55464017014F5541213628F58D3EF94A7
:0B1713006374809480400375586322CB
:10112600E5566401704378297C00FD7BFF7A1679C9
:101136008B120892EF3395E04F702E7565FF75663A
:1011460016756790F568855869855C6D855B6C8555
:101156005A6B85596AFB7A00793D12090B7B007A36
:1011660000793D12179DE4F556E5566401704778FF
:10117600297C00FD7BFF7A16799C120892EF339545
:10118600E04F70327565FF7566167567A3AF61EF40
:101196003395E0F5688F69AF5FEF3395E0F56A8FB9
:1011A6006B7B007A00793D12090B7B007A00793D52
:0711B60012179DE4F556221B
:0F180400E4F580E5A0541F44A0F5A053A01F22D7
:0F1813007580FFE5A0541F4480F5A053A01F224D
:1017F100538EBF53890F758B18758DFCC28FD28E96
:03180100D2AB2245
:07183D0053D9F7E4F5D822AE
:1017B300759850438E01538EFB75D7CC75D6FF4376
:0517C3008E10D2AC22E3
:10173900C0F9A4B0999282F88090FF4079243019B9
:0A1749001202780010FFC6C78CC81A
:0A165D00080B0A0A0A0A0A0A0A0A20
:1012D1007580FFE5A0541F44E0F5A053A01FAF099E
:1012E100A8077401088002C333D8FCF580E5A05437
:1012F1001F44C0F5A053A01F740B2509F8E69017F1
:101301003993F580E5A0541F44E0F5A053A01F05D3
:0A13110009E50964087002F50922DD
:1014B900E50A146018047023E50814600A14600A28
:1014C90024027017021249021621021074E5081449
:0C14D900600604700602150E1215362283
:10124900750B16750C0A750D0A750E0AE4FFFE7DFD
:10125900C87C42AB5CAA5BA95AA8591200261201A4
:10126900E3AB07AA067C037DE812066D8F0F7C03AA
:101279007DE8AF03AE0212066D7E007F64CFCDCF4D
:10128900CECCCE12066DEF240BF510E4FFFE7DC81F
:101299007C42AB5CAA5BA95AA8591200261201E349
:1012A900AB07AA067C007D6412066D7E007F0ACF1B
:1012B900CDCFCECCCE12066D8F117C007D0AAF0347
:0812C900AE0212066D8D122227
:10162100750B17750C0A750D0A750E0A750F0A757B
:10163100100AE55875F00A84F511E55875F00A8429
:0416410085F01222FC
:10107400750B19750C0A750D0AD3E55E9410E55DC0
:101084009427400FAE5DAF5E7C277D101206188F4B
:101094000E8003750E0AD3E55E94E8E55D94034083
:1010A4001CAE5DAF5E7C277D101206187E037FE8C0
:1010B400CFCDCFCECCCE1206188F0F8003750F0A7A
:1010C400D3E55E9464E55D9400401CAE5DAF5E7C48
:1010D400037DE81206187E007F64CFCDCFCECCCE40
:1010E4001206188F10800375100AD3E55E940AE582
:1010F4005D9400401CAE5DAF5E7C007D64120618FA
:101104007E007F0ACFCDCFCECCCE1206188F1180B1
:101114000375110AAE5DAF5E7C007D0A1206188D60
:02112400122295
:10150E00750B18750C0A750D0A750E01750F0A7597
:10151E00100AE55F75F00A12059EF511E55F75F08C
:08152E000A12059E85F012224D
:10153600750B18750C0A750D0A750E02750F0A756E
:10154600100AE56175F00A12059EF511E56175F060
:081556000A12059E85F0122225
:100E760043B00FC2C4D2C2D2B5D2B4E5B0540F7ECD
:100E860000D2C4C2C2D2B5D2B4C4F8540FC868FFE7
:100E9600EEC454F048FEE5B0540FFDEF4DD2C4D277
:100EA600C2C2B5D2B4C4F8540FC868FFEEC454F039
:100EB60048FEE5B0540FFDEF4DD2C4D2C2D2B5C242
:100EC600B4C4F8540FC868FFEEC454F048FEE5B049
:100ED600540FFDEF4DF4FFEEF4FEEF8EF01206E731
:100EE6000F3900010F4D00020F6100040F75000855
:100EF6000F3400100F4800200F5C00400F70008078
:100F06000F2F01000F4302000F5704000F6B08005C
:100F16000F2A10000F3E20000F5240000F6680007F
:100F260000000F7A757E01804E757E028049757EBF
:100F3600038044757E04803F757E05803A757E0683
:100F46008035757E078030757E08802B757E09801A
:100F560026757E0A8021757E0B801C757E0C801797
:100F6600757E0D8012757E0E800D757E0F8008755C
:090F76007E108003E4F57EAF7EDD
:010F7F00224F
:100D1E00E51624F6607C24FD6051147003020E1259
:100D2E0024056003020E75050AE4F508E50A64025F
:100D3E006003020E75F50AE551656160047F01805E
:100D4E00027F00E528655F60047E0180027E00EE72
:100D5E004F7003020E75055EE55E7002055DFDE4E3
:100D6E00FF1216E7855F2885615122E50A1460148B
:100D7E00046003020E750508E50864036003020EA5
:100D8E0075F508220508E50864026003020E75F584
:100D9E000822AF087E00EF70047D0180027D00E521
:100DAE000AFB7A00640170047C0180027C00EC5D19
:100DBE006019055F055FAD5FED3395E0FCD3ED94F3
:100DCE0063EC648094804003E4F55FEF64014E7041
:100DDE00047F0180027F00EB64014A70047E018073
:100DEE00027E00EE5F7003020E7574052561F561DB
:100DFE00FF3395E0FED3EF9463EE648094804067FA
:100E0E00E4F56122AF087E00EF70047D0180027D63
:100E1E0000E50AFB7A00640170047C0180027C000C
:100E2E00EC5D6014155F155FAD5FED3395E0C36447
:100E3E008094805003755F63EF64014E70047F01F0
:100E4E0080027F00EB64014A70047E0180027E0006
:100E5E00EE5F601374FB2561F5613395E0C364802A
:080E6E009480500375616322BA
:1014E500E51624F260121460152405701B0555E5F8
:1014F5005564027013F55522E4F55DF55E22E4F5B9
:091505005DF55EFDFF1216E72200
:0416AC007F057E0038
:1016B000EF1FAA0670011E4A600FE4FDEDC3940CF3
:0916C0007480948050EA0D80F35F
:0116C90022FE
:02158600A907B3
:10158800E4FBEBC39408748094805012C294E9136E
:1015980092941216ACD294E9C313F90B80E47F0538
:0515A8007E000216B0F8
:10166800E4FBEBC39408748094805014C294ECC3D8
:1016780013FCD2943094034304801216AC0B80E21E
:02168800AF04AD
:01168A00223D
:1015AD00C200D2947F0C7E001216B0C2947F507E82
:1015BD00001216B0D2947F0A7E001216B0A2949239
:0615CD00001216ACA200A2
:0115D30022F5
:1013A3001215AD7FCC1215867F441215867FC87E39
:1013B300001216B01215AD7FCC1215867FBE121522
:1013C30086121668A907121668EF540FFEE9FFFD8F
:1013D300AC06E41201AAE4FBFA7980783D02002608
:0618440000007F24DFFE1E
:01184A00227B
:10175300E4FEEEC3940A74809480500DD290121864
:0917630044C2901218440E80E902
:01176C00225A
:10136200E4FD121753E4F5F9F5E9D2DE30910330CA
:10137200DFFAC2DE30DF06C2DF7DFF8021AFF9EF88
:10138200FEADE97C00E42DFDEC3EFC1201AA7B9649
:101392007A43798B783C1200261201E3AD07AF0540
:0113A2002228
:04176D00D2A07F0582
:10177100000000000000000000000000000000AEBA
:06178100071FEE70EB22D1
:0F182200D2A112176DC2A17F05121771C2A022A9
:0C183100C2A112176DD2A17F0502177131
:02145800AD07DE
:10145A00E4FCECC39408748094805024C2A07F05F5
:10146A00121771ED30E704D2A18002C2A17F0512E2
:10147A001771D2A0ED25E0FD7F051217710C80D2FD
:02148A00C2A0FE
:01148C00223D
:1015FB00E4FCECC3940874809480501712176DEDC3
:10160B0025E0FD30A103430501C2A07F0512177130
:05161B000C80DFAF05AB
:0116200022A7
:0B16CA001214581216D5AF031214586A
:1016D50012176DA2A1E433FDC2A07F05121771AFE9
:0116E50005FF
:0116E60022E1
:10000300C2A0EF24FF92A17F0512177112176DC2D0
:08001300A0D2A17F05021771C4
:10178700AD071FED600FE4FEEEC394707480948084
:0517970050EE0E80F38E
:01179C00222A
:10171E001218227F901214581216D57F03121458E5
:0B172E001216D51218317F0A0217872F
:1017C800AB071218227F901214581216D57F4312B5
:0517D80016CA021831E1
:1016E700AB05AA071218227FA01214581216D5AFFD
:0C16F700021216CA1218317F0A0217876F
:02155E00AB07D9
:101560001218227FA01216CA1218311218227FA157
:101570001214581216D51215FBAD077F0112000385
:05158000121831AF0557
:011585002243
:10131B00AC5FEC1201AFAB5CAA5BA95AA8591201E6
:10132B002C600740057513018003E4F513AF61EFE3
:10133B003395E0FED3E5589FEE6480F874809840B7
:10134B00057514018003E4F514E55564017004750B
:07135B00150122E4F5152243
:10141E00E5136401700543070180035307FEE514CD
:10142E006401700543070280035307FDE51564014F
:10143E00700543070480035307FBEFF4F580E5A026
:09144E00541F4480F5A053A01FB7
:011457002272
:10179D001205C06010F5993099FDC299740129F9AF
:0617AD00E43AFA80EB2291
:10002600EC4D6011E8497017ED33EC3304600DE4D4
:10003600FCFFFEFD22E933E8330470F802024F129A
:10004600021A58046009E4CC24815006285009029B
:100056000259284003020256C0E0EB4A7044B980B8
:1000660006D0E0FB020245EF4E701CBD8008EBFF98
:10007600EAFEE9FD80EBE98DF0A4FEE5F002010F52
:10008600E9CDF9EAFEEBFFEF89F0A4FCE5F0CE89B5
:10009600F0A42EFFE435F0CD89F0A42DFEE435F072
:1000A6008067EF4E7005BD80D780C3EF8BF0A4ACA0
:1000B600F0EE8BF0A42CFCE435F0F8EF8AF0A42CDB
:1000C600E5F038FCE433CB8DF0A42CFCE5F03BF8EE
:1000D600EE8AF0A42CFCE5F038F8E433CF89F0A4DE
:1000E6002CFCE5F038CF3400CE89F0A42FFFE5F0E4
:1000F6003EFEE433C98DF0A42EFEE5F039CD8AF03C
:10010600A42FFFE5F03EFEE43DFD33D0E0FB5007B3
:100116000BBB000F020259EC2CFCEF33FFEE33FE53
:06012600ED33FD02023181
:10012C0074F8CC6480CCC86480C8F58204604FC37A
:10013C00EB9FF5F0EA9E42F0E99D42F0E89C45F019
:10014C00603C501DE5825FFFE582D313CB5BCBF4A3
:10015C002B5582FB50280ABA002409B900200880CC
:10016C001DE5825BFBE582D313CF5FCFF4C3132F66
:10017C005582FF50090EBE00050DBD00010CC3EBEE
:10018C009FF5F0EA9E42F0E99D42F0E89C45F06054
:09019C0007CC4820E701B3EC2276
:1001A50075F020800E75F010800575F0087D007ED5
:1001B500007F003392D530D5031206A3EC334010EF
:1001C500EF33FFEE33FEED33FDEC33FCD5F0ED22DE
:0E01D500E5F0247EA2D513CC92E7CDCEFF221A
:1001E300EDD2E7CD33EC3392D524814006E4FFFE14
:1001F300FDFC22FCE4CFCECDCC24E0501174FF8073
:10020300EDC3CC13CCCD13CDCE13CECF13CF04700F
:07021300F030D5DE0206A366
:1008AF00E5792465F8E605792278623007027865E4
:1008BF00E475F0011206B10205C02000EB7F2ED2C5
:1008CF00008018EF540F2490D43440D4FF30040B21
:1008DF00EF24BFB41A0050032461FFE57A600215BC
:1008EF007A057DE57D7002057C30070D7862E47531
:1008FF00F0011206B1EF0206060215D47403D207F7
:10090F008003E4C207F5798B628A638964E4F57A20
:10091F00F57CF57DE57A60077F201208EA80F57592
:10092F007BFFC201C200C202C203C205C206C208D7
:10093F001208B8FF700D3007057F001208FBAF7D5E
:10094F00AE7C22B4255FC2D5C2041208B8FF24D0F2
:10095F00B40A00501A75F00A787A30D50508B6FF38
:10096F000106C6A426F620D5047002D20380D9242E
:10097F00CFB41A00EF5004C2E5D204020BE8D20143
:10098F0080C6D20080C0D20280BCD2D580BAD20538
:10099F0080B47F201208EA2002077401B57A004064
:1009AF00F11208AFFF1208EA020923D208D206801B
:1009BF00951208AFFB1208AFFA1208AFF94A4B7045
:1009CF000679DF7A0C7BFF20022EE57A602A7E0003
:1009DF008E827583001205D960060EEE657B70F06E
:1009EF00C2D5EBC0E0EAC0E0E9C0E0EE120C48D09F
:1009FF00E0F9D0E0FAD0E0FB1205C0FF60AAEBC02F
:100A0F00E0EAC0E0E9C0E01208EAD0E02401F9D042
:100A1F00E03400FAD0E0FBE57B0460DCD57BD980C5
:100A2F0087D20280A2120C2B60F7E57B70010412B3
:100A3F000264A97B600DE57B600914F57B120CD273
:100A4F00EF60F3EA30E702F404C3995077EAF42534
:100A5F007B0430E701E404F57B800D120C2B60C1A1
:100A6F00EA057B257B120264EA7878F630E701E429
:100A7F00257B04D57B0420050114120C48E4C0E04B
:100A8F00120CD27878E6601320E70714F61208D21A
:100A9F00802204F6D0E014C0E07F001208D2E57B7C
:100AAF0060071208C9157B800B3005031208C9D0E7
:100ABF00E0020923D0E00480C5120C2B60A0E57B77
:100ACF00041202647878EAF6E57B200502600104DF
:050ADF002404120C4884
:100AE40074FF04C0E0120CD21208D2E57B20050288
:100AF40060031208C9D0E0B57BE87F451208DC78B2
:100B040078E67F2B30E7047F2DF404C0E01208EA76
:100B1400D0E075F00A84C0F01208D3D0E01208D3F4
:100B2400020923791080027908C206C2088008D21B
:100B3400D5790A8004790AC2D5E57B047002F57B75
:100B4400E4FAFDFEFF1208AFFC7B08200113120833
:100B5400AFFD7B1030000A1208AFFE1208AFFF7B16
:100B640020EC3382D592D55013C3E43000069FFFA6
:100B7400E49EFEE42001039DFDE49CFCE4CBF8C26A
:100B840001EC700CCFCECDCCE824F8F870F38017CC
:100B9400C3EF33FFEE33FEED33FDEC33FCEB33FBFD
:100BA400994002FB0FD8E9EB300105F8D0E0C448C6
:100BB400B201C0E00AEC4D4E4F78207B0070C2EACF
:100BC400B57B0040BCC0E0120C4AD0F0D0E020015C
:100BD40004C4C0E0C4B201C0F01208D3D0F0D5F010
:100BE400EB0209231206C109C0530B275809914C83
:100BF400098D420B2B4F0B33440B334909A6430B8E
:100C040039550A6A460AC8450A34470CFF50099503
:100C14002D09992E09BC2B099D2309BA200CE82A19
:100C2400095548000009B4E57BB4FF03757B06123F
:100C340008AFFC1208AFFD1208AFFE1208AFFF7830
:100C440071020293790AA2D5200314300509B91060
:100C5400020404B9080104A2D520060250010420AC
:100C640002689202B57A005034C0E07F2030031944
:100C74007F30A20272067205500F120CA1C202C28A
:100C840006C205C2087F30800F300503E9C0E012B8
:100C940008EA300503D0E0F9D0E0B57ACC30051786
:100CA4007F30B9100C1208EA7F583004077F78802F
:100CB40003B908031208EA3002057F2D0208EA7F0F
:100CC400202008F87F2B2006F322920280CF7F0099
:100CD400B4070050052471F8E6FF22286E756C6C89
:100CE4002900D2011208AF3001F8C201787A30D558
:100CF4000108F60209552D504349581208AF240340
:100D0400B405004001E4900CFA931208DB743A1223
:0A0D140008DBD203757A04020B27F6
:10021A00E9D2E7C933E833F892D5EDD2E7CD33EC2A
:07022A0033FC5002B2D522A3
:10023100EC30E7100FBF000C0EBE00080DBD00042E
:100241000BEB6014A2D5EB13FCED92E7FD2274FFDA
:10025100FCFDFEFF22E480F8A2D574FF13FC7D8033
:03026100E480EF47
:10026400F920E72824F950037907E4F42402FB1861
:10027400DBFDE624FB5014E9600DE4F618E604F611
:0F028400B40A08E4F6D9F57401F60A22C2D522AD
:10029300ED33EC3392D5FA602AB4FF33EDC2E77B3A
:1002A300FF60067A0279B8E4227A0279C120D50484
:1002B3007A0279BC224E614E002B494E46002D49ED
:1002C3004E4600E47A08F608DAFC7B00740722E85D
:1002D300C0E0ECC0E0EDC0E0EEC0E0EFC0E0EA75E6
:1002E300F010A4CAABF075F04DA42BFBE435F0FC81
:1002F300EA2410FAEB34C5FBEC34D9FCEDC2E7FF7A
:1003030075F056A4F42411C5F0F434C58FF0A42A73
:10031300E5F03BE43CF620E71412055ED0E0FFD0A5
:10032300E0FED0E0FDD0E0FC1204918014F404124E
:10033300055ED0E0FFD0E0FED0E0FDD0E0FC12008F
:1003430026D0E0F8E6FAEDD2E7CD33EC332482FB96
:10035300E4C3CF33CFCE33CECD33CD33DBF37B0703
:1003630075F00A846004F6081B0AE5F0F6088FF0BE
:10037300740AA4FFACF08EF0740AA42CFEACF05007
:10038300010C8DF0740AA42CFDE435F0F608DBDED5
:03039300740722CA
:1003960002024FE86480F8E933E83360110460F044
:1003A600ED33EC337009E8FCE9FDEAFEEBFF2204CD
:1003B60060DED3EB9FEA9EE99DE8C2E78CF0C2F7C8
:1003C60095F0400CE8CCF8E9CDF9EACEFAEBCFFB94
:1003D60012021A85D0F05804700320D5B3E80470D1
:1003E600075002B2D502025992D5EC0460F7E4CC6C
:1003F600C0E0C398F8603B94186008400DD0E0FB5D
:10040600020231E4FBFAC9FC8028E830E406E4C9BC
:10041600FBE4CAFCE830E305E4C9CACBFCE85407B0
:100426006010F8C3E913F9EA13FAEB13FBEC13FCBB
:10043600D8F130F52FC3E49CFCEF9BFFEE9AFEED5E
:1004460099FDD0E0FBEF4E4D4C701222DB03020209
:1004560056EC2CFCEF33FFEE33FEED33FDED30E7CB
:10046600EB020231EF2BFFEE3AFEED39FDD0E0FB59
:1004760050130BBB0003020259ED13FDEE13FEEF02
:0804860013FFEC13FC0202312C
:10048E00020259EC5D046005E85904700302024F44
:10049E0012021A580460F6EC4860F2EC7004FDFE8D
:1004AE00FF22C860DB2481C85009C3986002500641
:1004BE000202569850CAF582E9294B4A7005AB8262
:1004CE0002024575F0007C1A7880C3EF9BEE9AED20
:1004DE0099400DC3EF9BFFEE9AFEED99FDE842F0B9
:1004EE00DC23ACF0D0E0FFD0E0FED0E0FDAB82200C
:1004FE00E7101BEB60BAEC2CFCEF33FFEE33FEED96
:10050E0033FD020231E803F830E705C0F075F00064
:10051E00EF2FFFEE33FEED33FD40B830E7C280AA79
:10052E003F8000004120000042C80000447A0000D5
:10053E00461C400047C35000497424004B18968057
:10054E004CBEBC205A0E1BCA6753C21C749DC5AE4E
:10055E00FB60065407601C232312058CEB54386095
:10056E0009120578120587120026ECF8EDF9EEFA5D
:10057E00EFCB22EB12058780F1543803241C900533
:10058E002EFE93FC0EEE93FD0EEE930ECE93FF22F7
:1011C90002148DE493A3F8E493A34003F68001F29B
:1011D90008DFF48029E493A3F85407240CC8C33327
:1011E900C4540F4420C8834004F456800146F6DFF6
:1011F900E4800B0102040810204080901645E47E2B
:10120900019360BCA3FF543F30E509541FFEE493EA
:10121900A360010ECF54C025E060A840B8E493A3B1
:10122900FAE493A3F8E493A3C8C582C8CAC583CADC
:10123900F0A3C8C582C8CAC583CADFE9DEE780BE94
:011667000082
:10059E00C2D530F707B2D563F0FF05F030E70CB2E5
:1005AE00D5F4048463F0FF05F080018430D502F4A5
:0205BE00042215
:1005C000BB010689828A83E0225002E722BBFE0239
:0905D000E32289828A83E493226C
:1005D900BB010CE58229F582E5833AF583E02250D7
:1005E90006E92582F8E622BBFE06E92582F8E22221
:0D05F900E58229F582E5833AF583E493223B
:10060600BB010689828A83F0225002F722BBFE01D3
:02061600F322CD
:10061800BC000BBE0029EF8DF084FFADF022E4CCC6
:10062800F875F008EF2FFFEE33FEEC33FCEE9DEC8F
:10063800984005FCEE9DFE0FD5F0E9E4CEFD22EDD5
:10064800F8F5F0EE8420D21CFEADF075F008EF2F1F
:10065800FFED33FD4007985006D5F0F222C398FD10
:050668000FD5F0EA22AD
:10066D00C2D5EC30E709B2D5E4C39DFDE49CFCEEA8
:10067D0030E715B2D5E4C39FFFE49EFE120618C302
:10068D00E49DFDE49CFC800312061830D507C3E4FD
:06069D009FFFE49EFE2217
:0E06A300C3E49FFFE49EFEE49DFDE49CFC2268
:1006B100FAE6FB0808E6F925F0F618E6CA3AF6224A
:1006C100D083D082F8E4937012740193700DA3A3C8
:1006D10093F8740193F5828883E4737402936860DC
:0606E100EFA3A3A380DFDC
:1006E700D083D082F8E4937012740193700DA3A3A2
:1006F70093F8740193F5828883E473740293B5F0D9
:0D070700067403936860E9A3A3A3A380D840
:1015D400EFB40A07740D1215DF740A309811A89934
:1015E400B8130CC2983098FDA899C298B811F63077
:0715F40099FDC299F599224F
:10071400E3F5F009E208B5F06D606B80F3E3F5F002
:1007240009E608B5F060605E80F387F009E608B575
:10073400F054605280F487F009E208B5F04860464E
:1007440080F488828C8387F009E0A3B5F0386036A2
:1007540080F488828C8387F009E493A3B5F0276042
:100764002580F388828C83E3F5F009E0A3B5F016C5
:10077400601480F388828C83E3F5F009E493A3B5D5
:10078400F004600280F202083F808580E7808E805A
:10079400D2803C8015806C807E809B80B5808B806D
:1007A400A1804F8070803A02084B89828A83ECFAD8
:1007B400E493F5F0A3C8C582C8CCC583CCE493A365
:1007C400C8C582C8CCC583CCB5F070606E80E189A1
:1007D400828A83E493F5F0A3E208B5F05E605C805E
:1007E400F289828A83E0F5F0A3E608B5F04D604B08
:1007F40080F389828A83E0F5F0A3E208B5F03C60D7
:100804003A80F389828A83E493F5F0A3E608B5F08D
:100814002A602880F2805389828A83ECFAE493F573
:10082400F0A3C8C582C8CCC583CCE0A3C8C582C820
:10083400CCC583CCB5F004600280E27FFFB5F00242
:100844000F2240027F012289828A83ECFAE0F5F0CC
:10085400A3C8C582C8CCC583CCE0A3C8C582C8CC14
:10086400C583CCB5F0D560D380E389828A83ECFA62
:10087400E0F5F0A3C8C582C8CCC583CCE493A3C873
:10088400C582C8CCC583CCB5F0B160AF80E288F036
:10089400ED2402B4040050A3F582EB2402B4040056
:0B08A4005099232345822390078D7399
:00000001FF
