:0300000002029663
:0C029600787FE4F6D8FD7581370202DDA8
:0B000E00C0F9A4B0999282F88090FF26
:10032200082F0A0A0A0A0A0A0A0A0817FEFDFBF738
:10033200EFDFBF7F081F7FBFDFEFF7FBFDFE042764
:100342007EBDDBE7042BE7DBBD7E010D00010F0064
:10035200021500C8010E0101100001110001120175
:0F0362000213003202080000010A00020B000023
:0F043000E4F580E5A0541F44A0F5A053A01F22BF
:0F043F007580FFE5A0541F4480F5A053A01F2235
:10040A00438E805389F0758AF4758CFFC28DD28C25
:03041A00D2A92242
:10041D00538EBF53890F758B18758DFCC28FD28E7D
:03042D00D2AB222D
:1003E90012043012043F12040A12041DD2AFE50FA1
:1003F90075F00A84F535E50F75F00A8485F03680C5
:01040900ED05
:03000B00020128C7
:10012800C0E0C0F0C083C082C0D075D000C000C09D
:0D01380001C002C003C004C005C006C0071E
:100145000509E50970020508C39514E508951350DE
:10015500047F0180027F00D3E5099400E50894003F
:1001650040047E0180027E00EF5E602DE5A0541FF5
:100175004480F5A0E50E24FE600F14601114601391
:100185002403701212044E800D12045780081204C5
:1001950060800312046953A01FC3E5099514E5089F
:1001A500951340047F0180027F00C3E50994E8E5CB
:1001B50008940350047E0180027E00EE5F600EE528
:1001C500A0541F4480F5A07580FF53A01FE509B416
:0D01D500E80BE508B4030675080075090085
:1001E200D007D006D005D004D003D002D001D00071
:0B01F200D0D0D082D083D0F0D0E0321B
:03001B000201FDE2
:1001FD00C0E0C0F0C083C082C0D075D000C000C0C8
:0D020D0001C002C003C004C005C006C00748
:10021A00120372050AE50A640A7007F50A12001E3B
:10022A008F0F050CE50C7002050B65167004E50BC3
:10023A006515703DF50BF50CAF0EEF64016005EF27
:10024A006402700C0510E51064087004F510050EC0
:10025A00AF0EEF64036005EF640470150510E51036
:10026A006404700DF510050EE50E64057003750E35
:01027A000182
:10027B00D007D006D005D004D003D002D001D000D7
:0B028B00D0D0D082D083D0F0D0E03281
:10001E0043B00FC2C4D2C2D2B5D2B4E5B0540F7E33
:10002E0000D2C4C2C2D2B5D2B4C4F8540FC868FF4D
:10003E00EEC454F048FEE5B0540FFDEF4DD2C4D2DD
:10004E00C2C2B5D2B4C4F8540FC868FFEEC454F09F
:10005E0048FEE5B0540FFDEF4DD2C4D2C2D2B5C2A8
:10006E00B4C4F8540FC868FFEEC454F048FEE5B0AF
:10007E00540FFDEF4DF4FFEEF4FEEF8EF01203BCC5
:10008E0000E1000100F5000201090004011D000855
:10009E0000DC001000F00020010400400118008078
:1000AE0000D7010000EB020000FF0400011308005E
:1000BE0000D2100000E6200000FA4000010E800081
:1000CE0000000122753701804E7537028049753761
:1000DE00038044753704803F753705803A753706BF
:1000EE0080357537078030753708802B7537098056
:1000FE002675370A802175370B801C75370C8017D3
:10010E0075370D801275370E800D75370F80087597
:09011E0037108003E4F537AF3718
:0101270022B5
:100372007580FFE5A0541F44E0F5A053A01FAF0D08
:10038200A8077401088002C333D8FCF580E5A054A5
:100392001F44C0F5A053A01F742F250DF8E690004E
:1003A2000E93F580E5A0541F44E0F5A053A01F056D
:0A03B2000DE50D64087002F50D2240
:09044E0074172510F8E6F5802270
:09045700741F2510F8E6F580225F
:0904600074272510F8E6F580224E
:09046900742B2510F8E6F5802241
:1002A2000203E9E493A3F8E493A34003F68001F286
:1002B20008DFF48029E493A3F85407240CC8C3335D
:1002C200C4540F4420C8834004F456800146F6DF2C
:1002D200E4800B0102040810204080900322E47E97
:1002E200019360BCA3FF543F30E509541FFEE49321
:1002F200A360010ECF54C025E060A840B8E493A3E8
:10030200FAE493A3F8E493A3C8C582C8CAC583CA12
:10031200F0A3C8C582C8CAC583CADFE9DEE780BECA
:01037100008B
:1003BC00D083D082F8E4937012740193700DA3A3D0
:1003CC0093F8740193F5828883E473740293B5F007
:0D03DC00067403936860E9A3A3A3A380D86F
:00000001FF
