:0300000002096E84
:0C096E00787FE4F6D8FD7581390209B5E8
:0A0D510002192328011B28011C3C95
:100C4E00120D9F120DAE120D8C120D66120D791231
:0F0C5E000003D2AF120674120BAB12082080F500
:10067400E53964016003020750F539120B048F1643
:10068400AC1CE412033FAB15AA14A913A81212025E
:10069400BC600250057F33120D23AC1CE412033FEF
:1006A400AB15AA14A913A8121202BC600840067F55
:1006B40001C00780047F00C007E4FFFE7DA07C42E8
:1006C400AB15AA14A913A8121202BC50047E01800F
:1006D400027E00D0E05E605BC37450951CFDE49420
:1006E40000FC12033AA804A905AA06AB07E4FFFE1E
:1006F4007D4C7C4312021FC004C005C006C007AC79
:100704001CE412033FA804A905AA06AB07AF15AE63
:1007140014AD13AC12120021D003D002D001D000CA
:10072400120116E4FBFA794C784212002512037385
:10073400120D23E4FFFE7DA07C42AB15AA14A9137D
:0D074400A8121202BC40057FFF120D2322F7
:03000B0002000EE2
:0D000E00C0E00511E51170020510D0E032D0
:03001B0002047963
:10047900C0E0C0F0C083C082C0D075D000C000C049
:0D04890001C002C003C004C005C006C007CA
:10049600120ABA0508E508640A7026F50885373891
:1004A600120C6D8F37E538C39537500312057BE57F
:1004B60016D3951C4005120DCC8003120D9F120811
:1004C600CE050DE50D7002050C64C8450C7007F5E8
:1004D6000CF50D753901050AE50A70020509FFAE2E
:1004E60009BE011ABFF417750900750A00E5112542
:1004F600E0F518E51033F517751000751100050BBA
:10050600E50B64327020F50B120C888F0FAC0FE4EC
:1005160012033F7B397AB479C8783E1201168F15DB
:100526008E148D138C12050EE50E6464702CF50E78
:10053600E53364017005632AFF8003752A00E534FC
:1005460064017005632BFF8003752B00E53564019C
:0A0556007005632CFF8003752C0074
:10056000D007D006D005D004D003D002D001D000EF
:0B057000D0D0D082D083D0F0D0E03299
:0F0D9F00E4F580E5A0541F44A0F5A053A01F2247
:0F0DAE007580FFE5A0541F4480F5A053A01F22BD
:100D6600538E7F7589F4758AFF758CFFC28DD28C80
:030D7600D2A922DD
:0700030053D9F7E4F5D82200
:100D7900538EBF53890F758B18758DFCC28FD28E18
:030D8900D2AB22C8
:100CA300C0F9A4B0999282F88090FF40792430195A
:0A0CB3001202780010FF88898E8C71
:0A0D5B0008220A0A0A0A0A0A0A0A14
:100ABA007580FFE5A0541F44E0F5A053A01FAF1DA9
:100ACA00A8077401088002C333D8FCF580E5A05456
:100ADA001F44C0F5A053A01F7422251DF8E6900CF0
:100AEA00A393F580E5A0541F44E0F5A053A01F0589
:0A0AFA001DE51D64087002F51D22C1
:100BAB00E52014600D14600D14600D2403701E02FB
:100BBB000751020B7A0209FAE51E14600A14600A47
:0E0BCB0024027009020A66020C2A120BD922BB
:10075100E51F707175221875230A75240AAE17AF4B
:10076100187C277D101204168F25AE17AF187C2731
:100771007D101204167E037FE8CFCDCFCECCCE12F2
:1007810004168F26AE17AF187C037DE81204167E7F
:10079100007F64CFCDCFCECCCE1204168F27AE17FB
:1007A100AF187C007D641204167E007F0ACFCDCF86
:1007B100CECCCE1204168F28AE17AF187C007D0A5E
:1007C1001204168D29E51F640170537522187523D3
:1007D1000A75240A75250A75260AAE17AF187C27F3
:1007E1007D101204168F27AE17AF187C277D1012CB
:1007F10004167E037FE8CFCDCFCECCCE120416EF08
:10080100240BF528AE17AF187C037DE81204167E81
:0F081100007F64CFCDCFCECCCE1204168F29221C
:100B7A0075221775230A75240A75250A75260A75BA
:100B8A00270AAF15AE14AD13AC12120373EF75F04A
:100B9A000A1203F4F528EF75F00A1203F485F02916
:010BAA002228
:1009FA00AF217E00EF702E75221675230A75240A20
:100A0A0075250A75260AE51675F06484F527E51634
:100A1A0075F06484E5F075F00A84F528E51675F03A
:100A2A000A8485F029EF64014E7030752216752309
:100A3A000A75240A75250A75260AE51675F064846E
:100A4A00240BF527E51675F06484E5F075F00A8441
:0C0A5A00F528E51675F00A8485F02922C5
:100A660075221975230175240A75250A75260AAE9D
:100A760019AF1A7C277D101204168F27AE19AF1AEC
:100A86007C277D101204167E037FE8CFCDCFCECC17
:100A9600CE120416EF240BF528AE19AF1A7C037D8F
:100AA600E81204167E007F64CFCDCFCECCCE1204E2
:040AB600168F29224C
:100C2A0075221975230275240A75250A75260A750F
:100C3A00270AE51B75F00A84F528E51B75F00A8476
:040C4A0085F02922E6
:100BD90075221975230375240A75250A75260A7560
:100BE900270AE51C75F06484240BF528E51C75F0CB
:0B0BF9006484E5F075F00A84F5292201
:100C6D0020B0037F012220B1037F022220B2037F37
:0A0C7D00032220B3037F0422E4FFEA
:010C8700224A
:10057B00E53714700302061A14602E14601414600D
:10058B00030206730520E52064046003020673F57D
:10059B002022E52064036003020673051EE51E643A
:1005AB00036003020673F51E22AF207E00EF640288
:1005BB00700A0521E52164027002F521EF64034EF8
:1005CB006003020673E51E14602914603424026074
:1005DB000302067374F4251AF51A74013519F5190B
:1005EB00E51A64D47004E5196430707C75190375D1
:1005FB001AE822740A251BF51B6446706B751B0ADF
:10060B0022740A251CF51C6482705D751C0A22AFCE
:10061B00207E00EF700A051FE51F64027002F51FB4
:10062B00EF64034E7042E51E14602614602F240203
:10063B007036740C251AF51A74FE3519F519E51A6E
:10064B0064F47004E5196401701E75192E751AE0B7
:10065B002274F6251BF51B700F751B3C2274F625B7
:09066B001CF51C7003751C7822BB
:040CBD00D2A07F053D
:100CC100000000000000000000000000000000AE75
:060CD100071FEE70EB228C
:0F0DBD00D2A1120CBDC2A17F05120CC1C2A0228F
:0C0DDB00C2A1120CBDD2A17F05020CC108
:020B4500AD07FA
:100B4700E4FCECC39408748094805024C2A07F0511
:100B5700120CC1ED30E704D2A18002C2A17F0512B9
:100B67000CC1D2A0ED25E0FD7F05120CC10C80D28F
:020B7700C2A01A
:010B79002259
:100C0400E4FCECC39408748094805017120CBDED7E
:100C140025E0FD30A103430501C2A07F05120CC1EC
:050C24000C80DFAF05AC
:010C290022A8
:080CD700120DBD7F90120B45C8
:100CDF00120CBDA2A1E433FDC2A07F05120CC1AF5F
:010CEF0005FF
:010CF00022E1
:100D0B00C2A0EF24FF92A17F05120CC1120CBDC231
:080D1B00A0D2A17F05020CC16A
:100D3B00AD071FED600FE4FEEEC3947074809480DA
:050D4B0050EE0E80F3E4
:010D50002280
:100D8C00120CD77F03120B45120CDF120DDB7F0AFE
:030D9C00020D3B0A
:100C8800120DBD7F91120B45120CDF120C04AD073B
:0A0C98007F01120D0B120DDBAF05FA
:010CA200222F
:100D2300AB07120CD77F43120B45120CDFAF031234
:080D33000B45120CDF020DDB81
:060DE70000007F24DFFE86
:010DED0022E3
:100CF100E4FEEEC3940A74809480500DD290120DDC
:090D0100E7C290120DE70E80E933
:010D0A0022C6
:100B0400E4FD120CF1E4F5F9F5E9D2DE309103309D
:100B1400DFFAC2DE30DF06C2DF7DFF8021AFF9EFEE
:100B2400FEADE97C00E42DFDEC3EFC12033A7B961D
:100B34007A43798B783C120116120373AD07AF0523
:010B4400228E
:0F0DCC00758010E5A0541F44A0F5A053A01F226E
:10082000AF207E00EF7005752D018003E4F52DEFFC
:1008300064034E7009E51E70057533018003E4F50D
:1008400033AF207E00EF64017005752E018003E454
:10085000F52EEF64034E700BE51E640170057534D0
:10086000018003E4F534AF207E00EF64027005756B
:100870002F018003E4F52FEF64034E700DE51E6435
:10088000027007F5357536018005E4F535F536D388
:10089000E518951AE517951940057530018003E4B0
:1008A000F530AC1BE412033FAB15AA14A913A81230
:1008B0001202BC600740057531018003E4F531E5A3
:0E08C00016D3951C400475320122E4F5322255
:1008CE00E52D640170047E0180027E00E52A60043D
:1008DE007D0180027D00ED4E6005430701800353CC
:1008EE0007FEE52E640170047E0180027E00E52B7A
:1008FE0060047D0180027D00ED4E6005430702809D
:10090E00035307FDE52F640170047E0180027E0013
:10091E00E52C60047D0180027D00ED4E60054307ED
:10092E000480035307FBE53064017005430708801C
:10093E00035307F7E5316401700543071080035335
:10094E0007EFE5326401700543072080035307DF8C
:0F095E00EFF4F580E5A0541F4480F5A053A01FCF
:01096D002267
:10001E000203DFE86480F8E933E83360110460F02E
:10002E00ED33EC337009E8FCE9FDEAFEEBFF220448
:10003E0060DED3EB9FEA9EE99DE8C2E78CF0C2F743
:10004E0095F0400CE8CCF8E9CDF9EACEFAEBCFFB0F
:10005E001203AA85D0F05804700320D5B3E80470BB
:10006E00075002B2D50203E992D5EC0460F7E4CC56
:10007E00C0E0C398F8603B94186008400DD0E0FBD8
:10008E000203C1E4FBFAC9FC8028E830E406E4C9A7
:10009E00FBE4CAFCE830E305E4C9CACBFCE854072C
:1000AE006010F8C3E913F9EA13FAEB13FBEC13FC37
:1000BE00D8F130F52FC3E49CFCEF9BFFEE9AFEEDDA
:1000CE0099FDD0E0FBEF4E4D4C701222DB03020384
:1000DE00E6EC2CFCEF33FFEE33FEED33FDED30E7B7
:1000EE00EB0203C1EF2BFFEE3AFEED39FDD0E0FB44
:1000FE0050130BBB00030203E9ED13FDEE13FEEFED
:08010E0013FFEC13FC0203C116
:10011600EC4D6011E8497017ED33EC3304600DE4E3
:10012600FCFFFEFD22E933E8330470F80203DF1218
:1001360003AA58046009E4CC248150062850090219
:1001460003E92840030203E6C0E0EB4A7044B980A5
:1001560006D0E0FB0203D5EF4E701CBD8008EBFF16
:10016600EAFEE9FD80EBE98DF0A4FEE5F00201FF71
:10017600E9CDF9EAFEEBFFEF89F0A4FCE5F0CE89C4
:10018600F0A42EFFE435F0CD89F0A42DFEE435F081
:100196008067EF4E7005BD80D780C3EF8BF0A4ACAF
:1001A600F0EE8BF0A42CFCE435F0F8EF8AF0A42CEA
:1001B600E5F038FCE433CB8DF0A42CFCE5F03BF8FD
:1001C600EE8AF0A42CFCE5F038F8E433CF89F0A4ED
:1001D6002CFCE5F038CF3400CE89F0A42FFFE5F0F3
:1001E6003EFEE433C98DF0A42EFEE5F039CD8AF04B
:1001F600A42FFFE5F03EFEE43DFD33D0E0FB5007C3
:100206000BBB000F0203E9EC2CFCEF33FFEE33FED1
:06021600ED33FD0203C1FF
:10021C000203E9EC5D046005E8590470030203DF96
:10022C001203AA580460F6EC4860F2EC7004FDFE70
:10023C00FF22C860DB2481C85009C39860025006B5
:10024C000203E69850CAF582E9294B4A7005AB8245
:10025C000203D575F0007C1A7880C3EF9BEE9AED03
:10026C0099400DC3EF9BFFEE9AFEED99FDE842F02D
:10027C00DC23ACF0D0E0FFD0E0FED0E0FDAB822080
:10028C00E7101BEB60BAEC2CFCEF33FFEE33FEED0A
:10029C0033FD0203C1E803F830E705C0F075F00048
:1002AC00EF2FFFEE33FEED33FD40B830E7C280AAEE
:1002BC0074F8CC6480CCC86480C8F58204604FC3E9
:1002CC00EB9FF5F0EA9E42F0E99D42F0E89C45F088
:1002DC00603C501DE5825FFFE582D313CB5BCBF412
:1002EC002B5582FB50280ABA002409B9002008803B
:1002FC001DE5825BFBE582D313CF5FCFF4C3132FD5
:10030C005582FF50090EBE00050DBD00010CC3EB5C
:10031C009FF5F0EA9E42F0E99D42F0E89C45F060C2
:09032C0007CC4820E701B3EC22E4
:1003350075F020800E75F010800575F0087D007E43
:10034500007F003392D530D50312046BEC33401097
:10035500EF33FFEE33FEED33FDEC33FCD5F0ED224C
:0E036500E5F0247EA2D513CC92E7CDCEFF2288
:10037300EDD2E7CD33EC3392D524814006E4FFFE82
:10038300FDFC22FCE4CFCECDCC24E0501174FF80E1
:10039300EDC3CC13CCCD13CDCE13CECF13CF04707E
:0703A300F030D5DE02046B0F
:1003AA00E9D2E7C933E833F892D5EDD2E7CD33EC99
:0703BA0033FC5002B2D52212
:1003C100EC30E7100FBF000C0EBE00080DBD00049D
:1003D1000BEB6014A2D5EB13FCED92E7FD2274FF49
:1003E100FCFDFEFF22E480F8A2D574FF13FC7D80A2
:0303F100E480EFB6
:10097A00020C4EE493A3F8E493A34003F68001F239
:10098A0008DFF48029E493A3F85407240CC8C3337E
:10099A00C4540F4420C8834004F456800146F6DF4D
:1009AA00E4800B0102040810204080900D51E47E7F
:1009BA00019360BCA3FF543F30E509541FFEE49342
:1009CA00A360010ECF54C025E060A840B8E493A309
:1009DA00FAE493A3F8E493A3C8C582C8CAC583CA34
:1009EA00F0A3C8C582C8CAC583CADFE9DEE780BEEC
:010D6500008D
:1003F400C2D530F707B2D563F0FF05F030E70CB291
:10040400D5F4048463F0FF05F080018430D502F450
:020414000422C0
:10041600BC000BBE0029EF8DF084FFADF022E4CCCA
:10042600F875F008EF2FFFEE33FEEC33FCEE9DEC93
:10043600984005FCEE9DFE0FD5F0E9E4CEFD22EDD9
:10044600F8F5F0EE8420D21CFEADF075F008EF2F23
:10045600FFED33FD4007985006D5F0F222C398FD14
:050466000FD5F0EA22B1
:0E046B00C3E49FFFE49EFEE49DFDE49CFC22A2
:00000001FF
