:0701600002080000010A0083
:0F014200E5A0541F44A0F5A0E4F58053A01F22B0
:0F015100E5A0541F4480F5A07580FF53A01F2226
:1000E900E4F50BF50CF50D120142120151050DE570
:1000F9000D7002050CFFAE0CBE03F2BFE8EFE4F58C
:100109000CF50D12008FEFF460E3BF011CAF0B7407
:1001190001A807088002C333D8FCF4F580050BE574
:100129000BB40808E4F50B80037580FFE5A0541FA4
:090139004480F5A053A01F80B41E
:10008F007FFFE50A14600F1460342402704B20B315
:10009F0048750A01804320B315C3E5099490E5081C
:1000AF00940150350509E509702F0508802BD3E51C
:1000BF00099414E50894004019750A02801B30B3A7
:1000CF0018C3E5099490E508940150047F0180025C
:0900DF007F02E4F50AF508F509B9
:0100E80022F5
:03000000020003F8
:0C000300787FE4F6D8FD75810D02004AFC
:10000F000200E9E493A3F8E493A34003F68001F21E
:10001F0008DFF48029E493A3F85407240CC8C333F2
:10002F00C4540F4420C8834004F456800146F6DFC1
:10003F00E4800B0102040810204080900160E47EF0
:10004F00019360BCA3FF543F30E509541FFEE493B6
:10005F00A360010ECF54C025E060A840B8E493A37D
:10006F00FAE493A3F8E493A3C8C582C8CAC583CAA8
:10007F00F0A3C8C582C8CAC583CADFE9DEE780BE60
:010167000097
:00000001FF
