:0B038800C0F9A4B0999282F88090FFA9
:10031700080C0A0A0A0A0A0A0A0AC1000118000197
:100327001A00011900011400020A00000108000167
:020337000900BB
:0F036A00E5A0541F44A0F5A0E4F58053A01F2286
:0F037900E5A0541F4480F5A07580FF53A01F22FC
:1002BA0012036A120379438E805389F0758ACD75C9
:1002CA008CD4C28DD28CD2A9D2AFE51875F00A842B
:1002DA0085F013E51875F00A84F51212028580EA92
:03000B00020118D7
:10011800C0E0C0F0C083C082C0D075D000C000C0AD
:0D01280001C002C003C004C005C006C0072E
:1001350012023B0508E508640A701EF50885181AC1
:1001450012000E8F18E51AC39518500312033AE5ED
:100155001AD395184003751400E518602C050BE5B6
:100165000B7002050AE51470047F0180027F00D33D
:10017500E50B94E8E50A940340047E0180027E00C5
:0F018500EE5F600B1203538006750A00750B00C6
:10019400D007D006D005D004D003D002D001D000BF
:0B01A400D0D0D082D083D0F0D0E03269
:10000E0043B00FC2C4D2C2D2B5D2B4E5B0540F7E43
:10001E0000D2C4C2C2D2B5D2B4C4F8540FC868FF5D
:10002E00EEC454F048FEE5B0540FFDEF4DD2C4D2ED
:10003E00C2C2B5D2B4C4F8540FC868FFEEC454F0AF
:10004E0048FEE5B0540FFDEF4DD2C4D2C2D2B5C2B8
:10005E00B4C4F8540FC868FFEEC454F048FEE5B0BF
:10006E00540FFDEF4DF4FFEEF4FEEF8EF01202EAA8
:10007E00010D0001010800020103000400FE00084A
:10008E0000F9001000F4002000EF004000EA0080AC
:10009E0000E5010000E0020000DB040000D60800CD
:1000AE0000D1100000CC200000C7400000C280002C
:1000BE0000000112751C0D804E751C098049751CBF
:1000CE00058044751C01803F751C0E803A751C0A14
:1000DE008035751C068030751C02802B751C0F80B8
:1000EE0026751C0B8021751C07801C751C03801740
:1000FE00751C108012751C0C800D751C08800875FF
:09010E001C048003E4F51CAF1C85
:0101170022C5
:10023B007580FFE5A0541F44E0F5A053A01FAF0944
:10024B00A8077401088002C333D8FCF580E5A054DD
:10025B001F44C0F5A053A01F740C2509F8E69003AA
:10026B008893F580E5A0541F44E0F5A053A01F052B
:09027B0009E50964087002F509A7
:010284002257
:10033A00E51824FE600B14600C2402700B6315FF91
:09034A00226316FF226317FF2253
:10035300E51824FB600D04700D6316FFE4F51875B2
:070363001401226315FF22C3
:10028500E5156005431B018003531BFEE51660055C
:10029500431B408003531BBFE5176005431B80804C
:1002A50003531B7FE51BF4F580E5A0541F4480F53F
:0502B500A053A01F2270
:030000000201AF4B
:0C01AF00787FE4F6D8FD7581200201F68F
:1002EA00D083D082F8E4937012740193700DA3A3A3
:1002FA0093F8740193F5828883E473740293B5F0DA
:0D030A00067403936860E9A3A3A3A380D841
:1001BB000202BAE493A3F8E493A34003F68001F29E
:1001CB0008DFF48029E493A3F85407240CC8C33345
:1001DB00C4540F4420C8834004F456800146F6DF14
:1001EB00E4800B0102040810204080900317E47E8A
:1001FB00019360BCA3FF543F30E509541FFEE49309
:10020B00A360010ECF54C025E060A840B8E493A3CF
:10021B00FAE493A3F8E493A3C8C582C8CAC583CAFA
:10022B00F0A3C8C582C8CAC583CADFE9DEE780BEB2
:0103390000C3
:00000001FF
