:030000000200EF0C
:0C00EF00787FE4F6D8FD7581230201360D
:10024A000B0AC0F9A4B0999282F88090BF021700F5
:09025A000002150000020800007A
:0D000E00E4F5807F05120211E4FF020211EB
:0D02AE007580FF7F04120211E4FF020211AF
:0600030012000E0202AE25
:10029400758CFF758AFF758DFC758B17758904D273
:0A02A400A9D2ABD2AFD28CD28E22C9
:03000B000202BB33
:0D02BB00C0E00518E51870020517D0E0320C
:03001B000201D00F
:1001D000C0E0C0D075D000C000C0060509E50970B8
:1001E000020508B4E822E508B4031DAE17E5187847
:1001F00002C333CE33CED8F9F5168E1575170075B8
:100200001800750800750900D006D000D0D0D0E0E5
:0102100032BB
:10001E007D8EE4FF1202717FF47E011202D3C3E5DE
:10002E001694E8E51594034024AE15AF167C037DB7
:10003E00E812017B7C007D0A12017B740A2DF8E622
:10004E00FD7F041202717FF47E011202D3C3E51606
:10005E009410E5159427401DAE15AF167C277D1024
:10006E0012017B740A2FF8E6FD7F031202717FF4F2
:10007E007E011202D3AE15AF167C007D6412017B99
:10008E007C007D0A12017B740A2DF8E6FD7F0512B5
:10009E0002717FF47E011202D3AE15AF167C007D85
:1000AE000A12017B7C007D0A12017B740A2DF8E690
:1000BE00FD7F061202717FF47E011202D3AE15AFE0
:1000CE00167C007D0A12017B740A2DF8E6FD7F076F
:1000DE001202717FF47E011202D37DFF7F070202AE
:0100EE0071A0
:0B02C80012000312029412001E80FBC3
:0D0263000B19C0F9A4B0999282F88090BFE9
:10021100EF603224FB601314601914601F24037013
:1002210027E5A0541F4480F5A022E5A0541F44A057
:10023100F5A022E5A0541F44C0F5A022E5A0541F5B
:0902410044E0F5A02253A01F22A5
:10027100A8077401088002C333D8FCF5807F0612F9
:100281000211E4FF1202118D807F07120211E4FFB7
:0302910002021155
:0B02D300EF1FAC0670011E4C70F622FD
:1000FB000202C8E493A3F8E493A34003F68001F251
:10010B0008DFF48029E493A3F85407240CC8C33305
:10011B00C4540F4420C8834004F456800146F6DFD4
:10012B00E4800B010204081020408090024AE47E18
:10013B00019360BCA3FF543F30E509541FFEE493C9
:10014B00A360010ECF54C025E060A840B8E493A390
:10015B00FAE493A3F8E493A3C8C582C8CAC583CABB
:10016B00F0A3C8C582C8CAC583CADFE9DEE780BE73
:01027000008D
:10017B00BC000BBE0029EF8DF084FFADF022E4CC68
:10018B00F875F008EF2FFFEE33FEEC33FCEE9DEC31
:10019B00984005FCEE9DFE0FD5F0E9E4CEFD22ED77
:1001AB00F8F5F0EE8420D21CFEADF075F008EF2FC1
:1001BB00FFED33FD4007985006D5F0F222C398FDB2
:0501CB000FD5F0EA224F
:00000001FF
