:0B025500C0F9A4B0999282F88090FFDD
:10021D00080A0A0A0A0A0A0A0A0AC1000116000295
:09022D001700000108000109009E
:0F023700E5A0541F44A0F5A0E4F58053A01F22BA
:0F024600E5A0541F4480F5A07580FF53A01F2230
:1001F000120237120246438E805389F0758ACD75FC
:100200008CD4C28DD28CD2A9D2AFE51675F00A84F7
:0D02100085F011E51675F00A84F51080EDFB
:03000B00020144AB
:10014400C0E0C0F0C083C082C0D075D000C000C081
:0D01540001C002C003C004C005C006C00702
:100161001201A60508E508640A7005F50812000EDB
:100171000518E51870020517FFAE17BE070CBFD0B2
:0A01810009751700751800751201CA
:10018B00D007D006D005D004D003D002D001D000C8
:0B019B00D0D0D082D083D0F0D0E03272
:10000E00E4F51D53B00FC2C2C2C4E5B0540FF51AC9
:10001E00640F6023E51A24F9601A24FC601124FE93
:10002E006008147012751B04800D751B0380087513
:10003E001B028003751B0143B0F0D2C2D2C4A2C210
:10004E0092B6A2C492B7E5B054F0F51A64F06024EB
:10005E00E51A2490601B24C0601224E0600924F08D
:10006E007012751C04800D751C038008751C0280AF
:10007E0003751C01E51C25E025E0251B14FFF51674
:10008E0075B00FC2C2C2C4E5B0540FF51AE4F5172D
:10009E00F518F512F51DAEB0EE640F600AE51264A8
:0900AE000170F3E51D80EFE5127D
:0100B7002226
:1001A6007580FFE5A0541F44E0F5A053A01FAF09DA
:1001B600A8077401088002C333D8FCF580E5A05473
:1001C6001F44C0F5A053A01F740A2509F8E6900243
:1001D6005593F580E5A0541F44E0F5A053A01F05F4
:0901E60009E50964087002F5093D
:0101EF0022ED
:030000000200B843
:0C00B800787FE4F6D8FD7581200200FF7F
:1000C4000201F0E493A3F8E493A34003F68001F261
:1000D40008DFF48029E493A3F85407240CC8C3333D
:1000E400C4540F4420C8834004F456800146F6DF0C
:1000F400E4800B010204081020408090021DE47E7D
:10010400019360BCA3FF543F30E509541FFEE49300
:10011400A360010ECF54C025E060A840B8E493A3C7
:10012400FAE493A3F8E493A3C8C582C8CAC583CAF2
:10013400F0A3C8C582C8CAC583CADFE9DEE780BEAA
:0102360000C7
:00000001FF
