:0B026900C0F9A4B0999282F88090FFC9
:0D02430008080A0A0A0A0A0A0A0A0110003D
:0602740090A000E4F0225E
:0700030090800074FFF02261
:10009A0012027412000353907F438E805389F075C5
:1000AA008ACD758CD4C28DD28CD2A9D2AF12020D50
:1000BA003000FDC2001201C58F12E512C3946440DC
:1000CA000AE51275F06484F50D8003750D0AE512D0
:1000DA00C3940A4010E51275F06484E5F075F00ADD
:1000EA0084F50E8003750E0AE51275F00A8485F010
:0300FA000F80BDB7
:03000B000200FDF3
:1000FD00C0E0C0F0C083C082C0D075D000C000C0C9
:10010D0001C002C003C004C005C006C0070511E54B
:10011D0011B43205751100D200120144D007D0067A
:10012D00D005D004D003D002D001D000D0D0D082E1
:07013D00D083D0F0D0E032C6
:1001440090E00074FFF0AF107401A807088002C3A8
:1001540033D8FC90C000F074082510F8E6900269CA
:100164009390E000F00510E510B40803E4F51022C4
:04025100D2A07F05B3
:0802550000AE071FEE70F92254
:0F023400D2A1120251C2A17F05120255C2A0220F
:0C025D00C2A1120251D2A17F050202557D
:02017400AD07D5
:10017600C2AFE4FCC2A07F05120255ED30E704D2FF
:10018600A18002C2A17F05120255D2A0ED25E0FD95
:0D0196007F051202550CBC08DBD2AFC2A0E1
:0101A3002239
:0301F8001201747D
:1001FB00120251A2A1E433FDC2A07F05120255AF3A
:01020B0005ED
:01020C0022CF
:1001A400C2AFE4FC120251ED25E0FD30A10343058A
:1001B40001C2A07F051202550CBC08E8D2AFAF05FE
:0101C4002218
:1001E000C2A0EF24FF92A17F05120255120251C254
:0801F000A0D2A17F0502025517
:10022200AD071FED600BE4FEEEC3947050F20E803A
:01023200F7D4
:0102330022A8
:10020D001202347F901201F87F031201F812025D81
:05021D007F0A0202222D
:1001C5001202347F911201741201FB1201A4AD07D2
:0A01D5007F011201E012025DAF0588
:0101DF0022FD
:0300000002000EED
:0C000E00787FE4F6D8FD758120020055D3
:10001A0002009AE493A3F8E493A34003F68001F262
:10002A0008DFF48029E493A3F85407240CC8C333E7
:10003A00C4540F4420C8834004F456800146F6DFB6
:10004A00E4800B0102040810204080900243E47E01
:10005A00019360BCA3FF543F30E509541FFEE493AB
:10006A00A360010ECF54C025E060A840B8E493A372
:10007A00FAE493A3F8E493A3C8C582C8CAC583CA9D
:10008A00F0A3C8C582C8CAC583CADFE9DEE780BE55
:0102500000AD
:00000001FF
