:03000000020DDF0F
:0C0DDF00787FE4F6D8FD75815F020E26D7
:0C133700C0F9A4B0999282F88090FFBF2A
:10106A0008290A0A0A0A0A0A0A0AC1000144FF01EF
:10107A0031010151010143000133000146000141E0
:10108A0001025207D0023B03E801210002220000BC
:09109A00012500012600012700D8
:0F12D300E5A0541F44A0F5A0E4F58053A01F220E
:0F12E200E5A0541F4480F5A07580FF53A01F2284
:100E6B001212D31212E2438EC0758904E4F58AF58F
:100E7B008CD28C758BCD758DD4D28ED2ABD2AF126A
:100E8B0012F1121128121358E4FF12127EEF75F0B3
:100E9B0064A485F052F55312134F7F0812127EEFA4
:100EAB0075F064A485F03BF53C12134F7F101212C2
:100EBB007E8F4712134F7F1112127E8F4812134FE2
:100ECB007F1212127E8F4912134F7F1312127E8FD5
:0C0EDB004A12134F12038412120C80F80C
:03001B000209D8FF
:1009D800C0E0C0F0C083C082C0D075D000C000C0E5
:0D09E80001C002C003C004C005C006C00766
:1009F5000521E521640A6003020B26F521120CC1CD
:100A05001212C28F3AC3E53E953CE53B6480F8E59A
:100A15003D648098507AE535953CE53B6480F8E582
:100A250034648098406A754700AB36AA37A9389078
:100A350000011202BEFF1202A575F00AA42FF548A7
:100A45009000021202BE75F00AA4FF900003120284
:100A5500BE2FF5499000041202BE75F00AA4FF905E
:100A650000051202BE2FF54AAD477F101212621221
:100A7500134FAD487F1112126212134FAD497F1209
:100A850012126212134FAD4A7F1312126212134FE4
:100A9500D3E53E9553E5526480F8E53D6480984082
:100AA5007AE5359553E5526480F8E53464809850CD
:100AB5006A754701AB36AA37A9389000011202BE04
:100AC500FF1202A575F00AA42FF548900002120244
:100AD500BE75F00AA4FF9000031202BE2FF54990DF
:100AE50000041202BE75F00AA4FF9000051202BEB2
:100AF5002FF54AAD477F1012126212134FAD487F92
:100B05001112126212134FAD497F121212621213A3
:100B15004FAD4A7F1312126212134F853D34853E45
:100B2500350523E52370020522FFAE22BE031CBF57
:100B3500E8197522007523006343FFC28C858C3943
:0E0B4500858A45758C00758A00D28C121020AE
:100B5300D007D006D005D004D003D002D001D000F6
:0B0B6300D0D0D082D083D0F0D0E032A0
:100CC100E525146022147003020DCE240260030294
:100CD1000DDE75B00FC2C2C2C4AFB0EF640F7003B6
:100CE100020DDE7525012275B00FC2C2C2C4AFB0BC
:100CF100EF640F7003020DCA20B00375240120B107
:100D01000375240220B20375240320B30375240460
:100D1100E52424FE603C146060147003020DA124DC
:100D2100036003020DDE75B0F0D2C2D2C420C40646
:100D3100E4F544020DC620C206754401020DC62029
:100D4100B505754402807E30B403020DDE7544039F
:100D5100807375B0F0D2C2D2C420C405754404803A
:100D61006420C205754405805C20B5057544068084
:100D71005420B469754407804C75B0F0D2C2D2C416
:100D810020C405754408803D20C20575440980359D
:100D910020B50575440A802D20B44275440B802589
:100DA10075B0F0D2C2D2C420C40575440C8016209F
:100DB100C20575440D800E20B50575440E800620D0
:100DC100B41B75440F75250222E4F5252275B00F79
:0D0DD100C2C2C2C4AFB0EF640F7002F525BE
:010DDE0022F2
:101020007580FFE5A0541F44E0F5A053A01FAF2634
:10103000A8077401088002C333D8FCF580E5A054EA
:101040001F44C0F5A053A01F74292526F8E690136D
:101050003793F580E5A0541F44E0F5A053A01F0589
:0910600026E52664087002F5265D
:011069002264
:0E12F10000007F057E347DC3DDFEDEFCDFFAEB
:0112FF0022CC
:08134F007F6C7E91DEFEDFFCE5
:011357002273
:10038400E54470030204651470030204FD24FD7047
:10039400030204BE1470030205BB24FD70030204AF
:1003A400EB1470030204F424FD6003020674AF41ED
:1003B4007E00EF64017069F5310527E5276401705B
:1003C40051AB36AA37A9381202A5F54B9000011299
:1003D40002BEF54C9000021202BEF54D90000312CD
:1003E40002BEF54E9000041202BEF54F90000512B5
:1003F40002BEF550E54B75F00AA4254CF540E54DD9
:1004040075F00AA4254EF532E54F75F00AA425507F
:10041400F5280533E533640470447533010205B8E7
:10042400EF64024E7010F5510546E5466403702EE4
:100434007546010205B8AF417E00EF6403700E05F6
:100444003FE53F64037017753F010205B8EF64048C
:100454004E700B0542E542640370037542010205C8
:10046400B8754101C3E5279401748094804042E546
:100474004075F00A120283F55AE54075F00A12023B
:100484008385F05BE53275F00A120283F55CE53290
:1004940075F00A12028385F05DE52875F00A1202F0
:1004A40083F55EE52875F00A12028385F05F121168
:1004B40028753101E4F5270205B87541027551012B
:1004C400AE52AF537C007D641202EBAD07E4FF1221
:1004D4001262AE3BAF3C7C007D641202EBAD077F41
:1004E400081212620205B8754103753F01020671D4
:1004F400754104754201020671AF417E00EF64014B
:100504007048E5317044E53324FE601A14602A24EF
:100514000270370540AD40ED3395E0FCED64184CB6
:100524007028F54080240532AD32ED3395E0FCEDC2
:10053400643C4C7015F53280110528AD28ED3395D7
:10054400E0FCED643C4C7002F528EF64024E7064EC
:10055400E5517060E54624FE602104705774F4256B
:1005640053F55374013552F552E553B41046E55230
:10057400B4274175522575531C803974F4253CF514
:100584003C7401353BF53BE53CB4100BE53BB4272B
:1005940006753B25753C1CC3E53C9553E5526480C8
:1005A400F8E53B648098400C740C253CF53C74FEE3
:1005B400353BF53B020671AF417E00EF6401704BA1
:1005C400E5317047E53324FE601B14602C2402706F
:1005D4003A1540AD40ED3395E0C364809480502BD0
:1005E40075401780261532AD32ED3395E0C3648033
:1005F4009480501775323B80121528AD28ED339541
:10060400E0C364809480500375283BEF64024E700D
:100614005CE5517058E54624FE603A04704F740C52
:100624002553F55374FE3552F552C36480948050BB
:1006340005E4F552F553D3E553953CE53B6480F866
:10064400E552648098502674F42553F553740135AB
:1006540052F5528018740C253CF53C74FE353BF57C
:100664003BC3648094805005E4F53BF53C7544FF3E
:010674002263
:10120C00E54124FE600D14600D14600D2403700C78
:0D121C0002131D02132A02082C120F622279
:0D131D00E531640170030210EB120B6E222B
:1010EB00120FC98B368A3789381202A5F529900061
:1010FB00011202BEF52A752B0B9000021202BEF5EF
:10110B002C9000031202BEF52D752E0B90000412CD
:0D111B0002BEF52F9000051202BEF5302235
:100B6E00AF337E00EF64017051E5437017E54075B9
:100B7E00F00A120283F529E54075F00A1202838508
:100B8E00F02A800675290A752A0A752B0BE532752F
:100B9E00F00A120283F52CE53275F00A12028385F3
:100BAE00F02D752E0BE52875F00A120283F52FE550
:100BBE002875F00A12028385F030EF64024E7069D8
:100BCE00E543702FE54075F00A120283F529E540E2
:100BDE0075F00A12028385F02A752B0BE53275F03B
:100BEE000A120283F52CE53275F00A12028385F0A3
:100BFE002D801EE54075F00A120283F529E5407539
:100C0E00F00A12028385F02A752B0B752C0A752DAE
:100C1E000A752E0BE52875F00A120283F52FE528CA
:100C2E0075F00A12028385F030E533640360030227
:100C3E000CC0E5437046E54075F00A120283F529B3
:100C4E00E54075F00A12028385F02A752B0BE5320A
:100C5E0075F00A120283F52CE53275F00A12028342
:100C6E0085F02D752E0BE52875F00A120283F52FEF
:100C7E00E52875F00A12028385F03022E54075F002
:100C8E000A120283F529E54075F00A12028385F0F7
:100C9E002A752B0BE53275F00A120283F52CE5321C
:100CAE0075F00A12028385F02D752E0B752F0A75BD
:030CBE00300A22D7
:0D132A00E55164017003020EE71206752202
:100EE700750BCD750ACC75099C750841AC3AE412AF
:100EF70001CEAB0BAA0AA909A80812001E1202020A
:100F07008E3D8F3E75290B752A01752B0B752C0AA3
:100F17007C037DE81202EB8F2DAE3DAF3E7C037D57
:100F2700E81202EB7E007F64CFCDCFCECCCE12028B
:100F3700EB8F2EAE3DAF3E7C007D641202EB7E0050
:100F47007F0ACFCDCFCECCCE1202EB8F2FAE3DAFE7
:0A0F57003E7C007D0A1202EB8D3093
:010F6100226D
:10067500E5466401600302072CE5437050AE52AFB6
:10068500537C037DE81202EB8F29AE52AF537C03F6
:100695007DE81202EB7E007F64CFCDCFCECCCE12AB
:1006A50002EB8F2AAE52AF537C007D641202EB7EC3
:1006B500007F0ACFCDCFCECCCE1202EB8F2BAE5220
:1006C500AF537C007D0A1202EB8D2C800C75290A34
:1006D500752A0A752B0A752C0AAE3BAF3C7C037D47
:1006E500E81202EB8F2DAE3BAF3C7C037DE8120296
:1006F500EB7E007F64CFCDCFCECCCE1202EB8F2E1A
:10070500AE3BAF3C7C007D641202EB7E007F0ACFDE
:10071500CDCFCECCCE1202EB8F2FAE3BAF3C7C00C3
:100725007D0A1202EB8D30E5466402600302082B58
:10073500E543AE52AF537C037DE860030207D9124F
:1007450002EB8F29AE52AF537C037DE81202EB7E9C
:10075500007F64CFCDCFCECCCE1202EB8F2AAE5226
:10076500AF537C007D641202EB7E007F0ACFCDCFB4
:10077500CECCCE1202EB8F2BAE52AF537C007D0A4E
:100785001202EB8D2CAE3BAF3C7C037DE81202EBF5
:100795008F2DAE3BAF3C7C037DE81202EB7E007FE4
:1007A50064CFCDCFCECCCE1202EB8F2EAE3BAF3C7D
:1007B5007C007D641202EB7E007F0ACFCDCFCECCCC
:1007C500CE1202EB8F2FAE3BAF3C7C007D0A1202AE
:1007D500EB8D30221202EB8F29AE52AF537C037D95
:1007E500E81202EB7E007F64CFCDCFCECCCE1202D5
:1007F500EB8F2AAE52AF537C007D641202EB7E0074
:100805007F0ACFCDCFCECCCE1202EB8F2BAE52AF1F
:10081500537C007D0A1202EB8D2C752D0A752E0A6C
:07082500752F0A75300A224D
:10082C00E53954F0C4540F750800F509E539540F37
:10083C00750A00F50BE54554F0C4540F750C00F522
:10084C000DE545540FFD7C00E50B7B00FAE509C472
:10085C0054F0FEEB2400FBEE3AFAE50DC4F8540F0D
:10086C00C868FFE50CC454F048FEEB2FFFEA3ECFFE
:10087C002DFDEC3FFCE41201C98F118E108D0F8CF5
:10088C000EAB11AA10A90FA80EE4FFFE7D807C3FD1
:10089C001201277B007A247974784912001E8F1577
:1008AC008E148D138C12E53F6401600302094075B0
:1008BC00290B752A02752B0BAF11AE10AD0FAC0EB8
:1008CC00120202AB07AA067C277D101202EB8F2CBA
:1008DC007C277D10AF03AE021202EB7E037FE8CFC4
:1008EC00CDCFCECCCE1202EB8F2DAF11AE10AD0F03
:1008FC00AC0E120202AB07AA067C037DE81202EBD7
:10090C007E007F64CFCDCFCECCCE1202EB8F2E7C6F
:10091C00007D64AF03AE021202EB7E007F0ACFCDE6
:10092C00CFCECCCE1202EB8F2FAF11AE10AD0FACE1
:10093C000E0209CBE53F640260030209D775290B4F
:10094C00752A02752B0BAF15AE14AD13AC12120237
:10095C0002AB07AA067C277D101202EB8F2C7C279A
:10096C007D10AF03AE021202EB7E037FE8CFCDCF3A
:10097C00CECCCE1202EB8F2DAF15AE14AD13AC1244
:10098C00120202AB07AA067C037DE81202EB7E0082
:10099C007F64CFCDCFCECCCE1202EB8F2E7C007DE0
:1009AC0064AF03AE021202EB7E007F0ACFCDCFCE36
:1009BC00CCCE1202EB8F2FAF15AE14AD13AC1212BE
:0B09CC0002027C007D0A1202EB8D305D
:0109D70022FD
:100F6200AF427E00EF6401701E75290A752A0A7568
:100F72002B0A752C0A752D0A752E0AE54775F00A9B
:100F820084F52FE5478038EF64024E7039E54875E5
:100F9200F00A84F529E54875F00A8485F02A752B54
:100FA2000BE54975F00A84F52CE54975F00A84854C
:100FB200F02D752E0BE54A75F00A84F52FE54A757A
:070FC200F00A8485F03022E3
:0E130F0080828486888A8C81838587898B8D75
:0810A300065A020100000000E2
:10124600E4FEEEC3940874809480500FC297EF13A7
:0B12560092A3EFC313FFD2970E80E7B6
:01126100226A
:1012AE00C29300C29700D29300121246AF051212DB
:0412BE0046C293226F
:1010AC00E4FDC29300C29700D29300121246E4FFF3
:1010BC00EFC39408748094805011C297EDC313FD54
:1010CC0030A303430580D2970F80E5C29300C293EF
:0E10DC00C29700D29700C2A300D2A300AF05B6
:0110EA0022E3
:100FC9007BFF7A137916E4FCECC394037480948054
:100FD90050171202A5FF1210AC74082CF8A607745A
:100FE9000129F9E43AFA0C80DFE50AC4540FF554F3
:100FF900E50A540FF555E509C4540FF556E50954AA
:101009000FF557E508C4540FF558E508540FF5597D
:061019007B007A0079540F
:01101F0022AE
:10112800E4FD7F8E1212AE90130FE493FFE55EC4C8
:1011380054F0455FFD1212AEA3E493FFE55CC4547E
:10114800F0455DFD1212AEA3E493FFE55AC454F0D6
:0D115800455BFD1212AE7D807F8E0212AE4F
:04134300D2A07F05B0
:0813470000AE071FEE70F92251
:0F130000D2A1121343C2A17F05121347C2A0222C
:1011ED001213007F901211651212347F03121165D4
:0311FD0012123497
:0C120000C2A1121343D2A17F05021347C4
:02116500AD07D4
:10116700C2AFE4FCECC39408748094805024C2A0FE
:101177007F05121347ED30E704D2A18002C2A17F99
:1011870005121347D2A0ED25E0FD7F051213470C8A
:0611970080D2D2AFC2A01D
:01119D00222F
:0B122900121165121234AF03121165A0
:10123400121343A2A1E433FDC2A07F05121347AFEA
:0112440005A4
:011245002286
:10119E00C2AFE4FCECC39408748094805017121311
:1011AE0043ED25E0FD30A103430501C2A07F0512EA
:0911BE0013470C80DFD2AFAF052E
:0111C7002205
:0D11C80012116512123412119EAD077F0145
:1011D500C2A0EF24FF92A17F05121347121343C249
:0811E500A0D2A17F050213470F
:10000300AD071FED600FE4FEEEC39470748094801F
:0500130050EE0E80F329
:0100180022C5
:081358001211ED7F0A020003EF
:1012C2001211ED1213007F911211C8121200AF0514
:0112D20022F9
:10129900AB071213007F901211651212347F4012AE
:0512A9001229021200F1
:10126200AB05AA071213007FA0121165121234AF48
:0C127200021212291212007F0A0200036F
:02127E00AB07BC
:101280001213007FA01212291212001213007FA164
:081290001211C8121200AF0593
:011298002233
:10001E00EC4D6011E8497017ED33EC3304600DE4DC
:10002E00FCFFFEFD22E933E8330470F802026E1283
:10003E00023958046009E4CC248150062850090284
:10004E000278284003020275C0E0EB4A7044B98082
:10005E0006D0E0FB020264EF4E701CBD8008EBFF81
:10006E00EAFEE9FD80EBE98DF0A4FEE5F002010762
:10007E00E9CDF9EAFEEBFFEF89F0A4FCE5F0CE89BD
:10008E00F0A42EFFE435F0CD89F0A42DFEE435F07A
:10009E008067EF4E7005BD80D780C3EF8BF0A4ACA8
:1000AE00F0EE8BF0A42CFCE435F0F8EF8AF0A42CE3
:1000BE00E5F038FCE433CB8DF0A42CFCE5F03BF8F6
:1000CE00EE8AF0A42CFCE5F038F8E433CF89F0A4E6
:1000DE002CFCE5F038CF3400CE89F0A42FFFE5F0EC
:1000EE003EFEE433C98DF0A42EFEE5F039CD8AF044
:1000FE00A42FFFE5F03EFEE43DFD33D0E0FB5007BC
:10010E000BBB000F020278EC2CFCEF33FFEE33FE3C
:06011E00ED33FD0202506A
:10012400020278EC5D046005E85904700302026E73
:10013400120239580460F6EC4860F2EC7004FDFEDB
:10014400FF22C860DB2481C85009C39860025006AE
:100154000202759850CAF582E9294B4A7005AB82B0
:1001640002026475F0007C1A7880C3EF9BEE9AED6E
:1001740099400DC3EF9BFFEE9AFEED99FDE842F026
:10018400DC23ACF0D0E0FFD0E0FED0E0FDAB822079
:10019400E7101BEB60BAEC2CFCEF33FFEE33FEED03
:1001A40033FD020250E803F830E705C0F075F000B3
:1001B400EF2FFFEE33FEED33FD40B830E7C280AAE7
:1001C40075F020800E75F010800575F0087D007EB6
:1001D400007F003392D530D503120321EC33401055
:1001E400EF33FFEE33FEED33FDEC33FCD5F0ED22BF
:0E01F400E5F0247EA2D513CC92E7CDCEFF22FB
:10020200EDD2E7CD33EC3392D524814006E4FFFEF4
:10021200FDFC22FCE4CFCECDCC24E0501174FF8053
:10022200EDC3CC13CCCD13CDCE13CECF13CF0470F0
:07023200F030D5DE020321CC
:10023900E9D2E7C933E833F892D5EDD2E7CD33EC0B
:0702490033FC5002B2D52284
:10025000EC30E7100FBF000C0EBE00080DBD00040F
:100260000BEB6014A2D5EB13FCED92E7FD2274FFBB
:10027000FCFDFEFF22E480F8A2D574FF13FC7D8014
:03028000E480EF28
:100DEB00020E6BE493A3F8E493A34003F68001F2A5
:100DFB0008DFF48029E493A3F85407240CC8C33309
:100E0B00C4540F4420C8834004F456800146F6DFD7
:100E1B00E4800B010204081020408090106AE47EED
:100E2B00019360BCA3FF543F30E509541FFEE493CC
:100E3B00A360010ECF54C025E060A840B8E493A393
:100E4B00FAE493A3F8E493A3C8C582C8CAC583CABE
:100E5B00F0A3C8C582C8CAC583CADFE9DEE780BE76
:0110AB000044
:10028300C2D530F707B2D563F0FF05F030E70CB203
:10029300D5F4048463F0FF05F080018430D502F4C3
:0202A300042233
:1002A500BB010689828A83E0225002E722BBFE0257
:0902B500E32289828A83E493228A
:1002BE00BB010CE58229F582E5833AF583E02250F5
:1002CE0006E92582F8E622BBFE06E92582F8E2223F
:0D02DE00E58229F582E5833AF583E4932259
:1002EB00C2D5EC30E709B2D5E4C39DFDE49CFCEE2E
:1002FB0030E715B2D5E4C39FFFE49EFE12032FC374
:10030B00E49DFDE49CFC800312032F30D507C3E46E
:06031B009FFFE49EFE229C
:0E032100C3E49FFFE49EFEE49DFDE49CFC22ED
:10032F00BC000BBE0029EF8DF084FFADF022E4CCB2
:10033F00F875F008EF2FFFEE33FEEC33FCEE9DEC7B
:10034F00984005FCEE9DFE0FD5F0E9E4CEFD22EDC1
:10035F00F8F5F0EE8420D21CFEADF075F008EF2F0B
:10036F00FFED33FD4007985006D5F0F222C398FDFC
:05037F000FD5F0EA2299
:00000001FF
