:030000000204688F
:0C046800787FE4F6D8FD7581320204AF05
:0308E500010B14F0
:10057E001208F61209051208421209441208D2E4B2
:10058E00F530C3E530940A748094805013AF301266
:10059E000755740F2530F8A60712093B053080E287
:1005AE007F101207558F2912093B7F111207558FA5
:1005BE000B12093BD2AF1208911207EB1207CC8037
:0105CE00F537
:03001B000204F4E8
:1004F400C0E0C0F0C083C082C0D075D000C000C0CE
:0D05040001C002C003C004C005C006C0074E
:1005110012061C0508E508640A702AF508850D19FC
:100521001202738F0DE519C3950D500312037DE57A
:100531000ED3950B5003E48005C3E50E950BFF1216
:1005410008BD1206EAE52B640170170509E5096487
:10055100C8700F632DFF050AE50A64147004F52BBA
:02056100F50A99
:10056300D007D006D005D004D003D002D001D000EC
:0B057300D0D0D082D083D0F0D0E03296
:1007EB00E52A64017017F52A850E1A1206AB8F0ED7
:0E07FB00E50C6006E50E251AF51A752B012295
:0C092300C0F9A4B0999282F88090FF8E79
:0A08E800081D0A0A0A0A0A0A0A0A91
:10061C007580FFE5A0541F44E0F5A053A01FAF1B4D
:10062C00A8077401088002C333D8FCF580E5A054F8
:10063C001F44C0F5A053A01F741D251BF8E690099C
:10064C002393F580E5A0541F44E0F5A053A01F05AB
:0A065C001BE51B64087002F51B2269
:10089100E51C14600A14600A24027009020666024B
:0608A10005CF1207A8229A
:10066600850C1D751E0AE51A75F06484F51FE51ADA
:1006760075F06484E5F075F00A84F520E51A75F0E6
:100686000A8485F021E50E75F06484F522E50E7581
:10069600F06484E5F075F00A84F523E50E75F00A3A
:0506A6008485F0242210
:1005CF00E5282401FBE433FA7C007D0AAF03FE1219
:1005DF0001E38F1D7C007D0AAF03AE021201E38D94
:1005EF001E751F0A75200A75210A740F2528F8E653
:1005FF00FF75F06484F522EF75F06484E5F075F013
:0D060F000A84F523E675F00A8485F02422A4
:1007A800751D0B751E0A751F0A75200A75210A75B5
:1007B800220AE50B75F00A84F523E50B75F00A8427
:0407C80085F0242272
:0308F200012900D9
:1002730043B00FC2C4D2C2D2B5D2B4E5B0540F7EDC
:1002830000D2C4C2C2D2B5D2B4C4F8540FC868FFF6
:10029300EEC454F048FEE5B0540FFDEF4DD2C4D286
:1002A300C2C2B5D2B4C4F8540FC868FFEEC454F048
:1002B30048FEE5B0540FFDEF4DD2C4D2C2D2B5C251
:1002C300B4C4F8540FC868FFEEC454F048FEE5B058
:1002D300540FFDEF4DF4FFEEF4FEEF8EF0120246E5
:1002E30003360001034A0002035E000403720008A0
:1002F300033100100345002003590040036D0080C3
:10030300032C0100034002000354040003680800A7
:1003130003271000033B2000034F400003638000CA
:1003230000000377753101804E75310280497531C4
:10033300038044753104803F753105803A75310679
:1003430080357531078030753108802B7531098010
:100353002675310A802175310B801C75310C80178D
:1003630075310D801275310E800D75310F80087552
:0903730031108003E4F531AF31D3
:01037C00225E
:10037D00E50D24F6601C24FD602714700302042A89
:10038D00240560030204676325FFE525600F751CD6
:10039D0001226326FFE5266004751C0222E4F51C8C
:1003AD0022752A01C3E529940A74809480500D7436
:1003BD000F2529F8A60EAD0EAF298048C3E5299467
:0703CD000A74809480404394
:1003D400E4F531C3E5319409748094805028741095
:1003E4002531F8E6FF740F2531F8A607E53104FF3F
:1003F4001207558F3212093BAD32AF311208261263
:10040400093B053180CD850E18AD0E7F09120826F3
:0304140012093B8F
:100417000529AD297F1012082612093BAD0B7F1164
:10042700020826AF1C7E00EF700E6327FFE52770DA
:1004370004F50C8003750C01EF64014E700A052862
:10044700E528640A7002F528E51C64027012740A34
:10045700250BF50BD3945A748094804003E4F50B75
:010467002272
:0F08F600E4F580E5A0541F44A0F5A053A01F22F5
:0F0905007580FFE5A0541F4480F5A053A01F226A
:1008D200538EBF53890F758B18758DFCC28FD28EC4
:0308E200D2AB2274
:0709440053D9F7E4F5D822B6
:06094B0000007F24DFFE26
:010951002283
:10085D00E4FEEEC3940A74809480500DD290120978
:09086D004BC29012094B0E80E908
:01087600225F
:1006AB0012085DE4F5E9F5F9D2DEA291B0DF40FA6C
:1006BB00C2DE30DF06C2DF7DFF8021AFF9EFFEAD7A
:1006CB00E97C00E42DFDEC3EFC1201297B967A437C
:0E06DB00798B783C12001E120162AD07AF054C
:0106E90022EE
:04087700D2A07F0587
:10087B00000000000000000000000000000000AEBF
:06088B00071FEE70EB22D6
:0F091400D2A1120877C2A17F0512087BC2A022D0
:0C092F00C2A1120877D2A17F0502087B4C
:02072000AD0723
:10072200E4FCECC39408748094805024C2A07F053A
:1007320012087BED30E704D2A18002C2A17F05122C
:10074200087BD2A0ED25E0FD7F0512087B0C80D24C
:02075200C2A043
:010754002282
:10078200E4FCECC39408748094805017120877ED4F
:1007920025E0FD30A103430501C2A07F0512087BBD
:0507A2000C80DFAF0533
:0107A700222F
:0B080900120720120814AF0312072092
:10081400120877A2A1E433FDC2A07F0512087BAFC2
:0108240005CE
:0108250022B0
:10000300C2A0EF24FF92A17F0512087B120877C2DA
:08001300A0D2A17F0502087BC9
:1008A700AD071FED600FE4FEEEC394707480948073
:0508B70050EE0E80F37D
:0108BC002219
:10082600AB05AA071209147FA0120720120814AFFD
:0C0836000212080912092F7F0A0208A70D
:02075500AB07F0
:100757001209147FA012080912092F1209147FA188
:10076700120720120814120782AC077F0112000338
:0A07770012092F7F0A1208A7AF0431
:010781002255
:08093B007F3B7E5ADEFEDFFC6B
:010943002291
:100842001209147F901207201208147F0312072046
:0B08520012081412092F7F0A0208A7E9
:1008BD00AB071209147F901207201208147F431200
:0508CD00080902092FDB
:1007CC00AF1C7E00EF64017005752E018003E4F50B
:0F07DC002EEF64024E7004752F0122E4F52F22D8
:1006EA00E52D60055307FE8003430701E52E6401EB
:1006FA0070055307BF8003430740E52F6401700567
:10070A0053077F80034307808F80E5A0541F4480EE
:05071A00F5A053A01F33
:01071F0022B7
:10001E00EC4D6011E8497017ED33EC3304600DE4DC
:10002E00FCFFFEFD22E933E8330470F80201CE1224
:10003E00019958046009E4CC248150062850090225
:10004E0001D82840030201D5C0E0EB4A7044B980C4
:10005E0006D0E0FB0201C4EF4E701CBD8008EBFF22
:10006E00EAFEE9FD80EBE98DF0A4FEE5F002010762
:10007E00E9CDF9EAFEEBFFEF89F0A4FCE5F0CE89BD
:10008E00F0A42EFFE435F0CD89F0A42DFEE435F07A
:10009E008067EF4E7005BD80D780C3EF8BF0A4ACA8
:1000AE00F0EE8BF0A42CFCE435F0F8EF8AF0A42CE3
:1000BE00E5F038FCE433CB8DF0A42CFCE5F03BF8F6
:1000CE00EE8AF0A42CFCE5F038F8E433CF89F0A4E6
:1000DE002CFCE5F038CF3400CE89F0A42FFFE5F0EC
:1000EE003EFEE433C98DF0A42EFEE5F039CD8AF044
:1000FE00A42FFFE5F03EFEE43DFD33D0E0FB5007BC
:10010E000BBB000F0201D8EC2CFCEF33FFEE33FEDD
:06011E00ED33FD0201B00B
:1001240075F020800E75F010800575F0087D007E56
:10013400007F003392D530D503120238EC334010DF
:10014400EF33FFEE33FEED33FDEC33FCD5F0ED225F
:0E015400E5F0247EA2D513CC92E7CDCEFF229B
:10016200EDD2E7CD33EC3392D524814006E4FFFE95
:10017200FDFC22FCE4CFCECDCC24E0501174FF80F4
:10018200EDC3CC13CCCD13CDCE13CECF13CF047091
:07019200F030D5DE02023857
:10019900E9D2E7C933E833F892D5EDD2E7CD33ECAC
:0701A90033FC5002B2D52225
:1001B000EC30E7100FBF000C0EBE00080DBD0004B0
:1001C0000BEB6014A2D5EB13FCED92E7FD2274FF5C
:1001D000FCFDFEFF22E480F8A2D574FF13FC7D80B5
:0301E000E480EFC9
:1004740002057EE493A3F8E493A34003F68001F21B
:1004840008DFF48029E493A3F85407240CC8C33389
:10049400C4540F4420C8834004F456800146F6DF58
:1004A400E4800B01020408102040809008E5E47EFB
:1004B400019360BCA3FF543F30E509541FFEE4934D
:1004C400A360010ECF54C025E060A840B8E493A314
:1004D400FAE493A3F8E493A3C8C582C8CAC583CA3F
:1004E400F0A3C8C582C8CAC583CADFE9DEE780BEF7
:0108F5000002
:1001E300BC000BBE0029EF8DF084FFADF022E4CC00
:1001F300F875F008EF2FFFEE33FEEC33FCEE9DECC9
:10020300984005FCEE9DFE0FD5F0E9E4CEFD22ED0E
:10021300F8F5F0EE8420D21CFEADF075F008EF2F58
:10022300FFED33FD4007985006D5F0F222C398FD49
:050233000FD5F0EA22E6
:0E023800C3E49FFFE49EFEE49DFDE49CFC22D7
:10024600D083D082F8E4937012740193700DA3A347
:1002560093F8740193F5828883E473740293B5F07E
:0D026600067403936860E9A3A3A3A380D8E6
:00000001FF
