:0300000002000EED
:0C000E00787FE4F6D8FD758116020055DD
:0B024B00C0F9A4B0999282F88090FFE7
:10021200080D0A0A0A0A0A0A0A0A010C0001150054
:0A02220002080000010A00010B00B1
:1001930012022D12023C438E805389F0758ACD756D
:1001A3008CD4C28DD28CD2A9D2AFAF161201F785EF
:1001B300150FE50C75F06484F512E50C75F0648495
:1001C300AFF0EF75F00A84F513EF75F00A8485F04C
:0301D3001480D7BE
:03000B0002009A56
:10009A00C0E0C0F0C083C082C0D075D000C000C02C
:0D00AA0001C002C003C004C005C006C007AD
:1000B7000509E50970020508B4E818E508B4031353
:1000C700D3E50C9400748094804002150C750800E9
:0600D70075090012014949
:1000DD00D007D006D005D004D003D002D001D00077
:0B00ED00D0D0D082D083D0F0D0E03221
:0F022D00E5A0541F44A0F5A0E4F58053A01F22C4
:0F023C00E5A0541F4480F5A07580FF53A01F223A
:080256007F6C7E91DEFEDFFCEF
:01025E00227D
:10014900E5A0541F44E0F5A07580FF53A01FAF0A36
:10015900A8077401088002C333D8FCF580E5A054D0
:100169001F44C0F5A053A01F740D250AF8E690029C
:100179004B93F580E5A0541F44E0F5A053A01F055B
:090189000AE50A64087002F50A97
:01019200224A
:1001D6007FFFE5B0540F24F9601424FC600D24FE63
:1001E600600614700B7F01227F02227F03227F04A8
:0101F60022E6
:1001F7001201D6EFF460131202561201D6EFF46023
:0B020700091200F8AFB0EFF470FA220B
:1000F800EF24FE604014603D14603A24037041E52B
:10010800A0541F4480F5A0E50B14600C14600E2465
:1001180002700DE4F50C8008750C3C8003750C78B2
:10012800850B15050BD3E50B940274809480400D64
:10013800E4F50B8008E5A0541F4480F5A053A01FE8
:010148002294
:10001A00020193E493A3F8E493A34003F68001F268
:10002A0008DFF48029E493A3F85407240CC8C333E7
:10003A00C4540F4420C8834004F456800146F6DFB6
:10004A00E4800B0102040810204080900212E47E32
:10005A00019360BCA3FF543F30E509541FFEE493AB
:10006A00A360010ECF54C025E060A840B8E493A372
:10007A00FAE493A3F8E493A3C8C582C8CAC583CA9D
:10008A00F0A3C8C582C8CAC583CADFE9DEE780BE55
:01022C0000D1
:00000001FF
