:030000000200DD1E
:0C00DD00787FE4F6D8FD75812002012434
:0D000E00C0F9A4B0999282F88090FFBFC69F
:1003230008100A0A0A0A0A0A0A0A010F0001180138
:10033300011900021B0000011D00011A010208003F
:0A03430000010C00010D00010E0185
:10034E00120443120452438EC0758ACD758CD4C2EA
:10035E008DD28CD2A9758BF5758DFFC28FD28ED2B0
:0A036E00ABD2AFAF1E12042880F9D5
:03000B000201E00F
:1001E000C0E0C0F0C083C082C0D075D000C000C0E5
:0D01F00001C002C003C004C005C006C00766
:1001FD000509E50970020508B4E825E508B40320F2
:10020D00D3E50F9400748094804004150F8006751B
:10021D001B00751C007508007509001202EE8F1980
:03022D001202A416
:10023000D007D006D005D004D003D002D001D00022
:0B024000D0D0D082D083D0F0D0E032CC
:03001B0002016976
:10016900C0E0C0F0C083C082C0D075D000C000C05C
:0D01790001C002C003C004C005C006C007DD
:10018600050BE50B7002050AD3951CE50A951B5075
:1001960003751D01D3E50B951CE50A951B400DE57E
:1001A6000B94E8E50A94035003751D00E50BB4E8CB
:0F01B6000BE50AB40306750A00750B0012024B25
:1001C500D007D006D005D004D003D002D001D0008E
:0B01D500D0D0D082D083D0F0D0E03238
:0F044300E5A0541F44A0F5A0E4F58053A01F22AC
:0F045200E5A0541F4480F5A07580FF53A01F2222
:080461007F6C7E91DEFEDFFCE2
:010469002270
:1002A400E5A0541F44E0F5A07580FF53A01FAF0CD8
:1002B400A8077401088002C333D8FCF580E5A05474
:1002C4001F44C0F5A053A01F7410250CF8E690003D
:1002D4000E93F580E5A0541F44E0F5A053A01F053C
:0902E4000CE50C64087002F50C35
:0102ED0022EE
:10024B00AF1AEF3395E0FEEF64014E702875100B7B
:10025B0085181175120BE50F75F06484F515E50F14
:10026B0075F06484ADF0ED75F00A84F516ED75F05C
:10027B000A8485F017EF4E701F75100B85181175DA
:10028B00120BF514E51975F00A84F515E51975F0DF
:09029B000A8485F01675170C2287
:1003E9007FFFE5B0540F24F9601424FC600D24FE4E
:1003F900600614700B7F01227F02227F03227F0493
:0104090022D0
:100428001203E9EFF460131204611203E9EFF460B8
:0B0438000912001EAFB0EFF470FA22B2
:10001E00EF24FE60571470030200AD14700302004B
:10002E00BE240360030200DCE5A0541F4480F5A04B
:10003E00E50E24FE601214601A2402701F751B0058
:10004E00751CC87580FE8014751B01751CF47580B7
:10005E00FD8009751B02751CBC7580FB850E18058D
:10006E000EE50E64047064750E01805FE5A0541FEA
:10007E004480F5A0E50D14600C14600E2402700D82
:10008E00E4F50F8008750F3C8003750F78050DD3CE
:10009E00E50D9402748094804003E4F50D802CE508
:1000AE00A0541F4480F5A0E4F50FF51BF51C801B32
:1000BE00E5A0541F4480F5A0AF1AEF3395E0FEEF94
:0E00CE0064014E7004F51A8002051A53A01F3B
:0100DC002201
:04040A007F057E00EC
:10040E00EF1FAA0670011E4A600FE4FDEDC3940CA7
:09041E007480948050EA0D80F313
:0104270022B2
:02037800A907D3
:10037A00E4FBEBC39408748094805012C294E9138E
:10038A00929412040AD294E9C313F90B80E47F050C
:05039A007E0002040ECC
:1003C600E4FBEBC39408748094805014C294ECC38D
:1003D60013FCD29430940343048012040A0B80E287
:0203E600AF0462
:0103E80022F2
:10039F00C200D2947F0C7E0012040EC2947F507E56
:1003AF000012040ED2947F0A7E0012040EA29492C1
:0603BF000012040AA20076
:0103C5002215
:1002EE0012039F7FCC1203787F441203787FC87E5F
:1002FE000012040E12039F7FCC1203787FBE1203EE
:10030E00781203C6A9071203C6EFC454F0FFE9C45E
:04031E00540F42072F
:0103220022B8
:1000E90002034EE493A3F8E493A34003F68001F2DC
:1000F90008DFF48029E493A3F85407240CC8C33318
:10010900C4540F4420C8834004F456800146F6DFE6
:10011900E4800B0102040810204080900323E47E50
:10012900019360BCA3FF543F30E509541FFEE493DB
:10013900A360010ECF54C025E060A840B8E493A3A2
:10014900FAE493A3F8E493A3C8C582C8CAC583CACD
:10015900F0A3C8C582C8CAC583CADFE9DEE780BE85
:01034D0000AF
:00000001FF
